:100000000C946C000C9494000C9494000C941405C3
:100010000C9414050C9414050C9494000C94940006
:100020000C9494000C9494000C9494000C9400058F
:100030000C94F6040C940A050C94A4050C949400FA
:100040000C9414040C9494000C9415030C94EF027B
:100050000C9494000C9494000C9494000C949400D0
:100060000C9494000C94940000000008000201001D
:100070000003040700000000000000001112131428
:1000800015160A0B0C0D0E0F0000000024002700AF
:100090002A000001020304050000000025002800DA
:1000A0002B000000000023002600290004040404A3
:1000B0000404040402020202020203030303030312
:1000C00001020408102040800102040810200102EF
:1000D00004081020CC09C20911241FBECFEFD8E0BC
:1000E000DEBFCDBF12E0A0E0B1E0E4E5FAE102C07E
:1000F00005900D92AA32B107D9F724E0AAE2B2E046
:1001000001C01D92AB33B207E1F710E0CBE6D0E0BF
:1001100004C02197FE010E94120DCA36D107C9F70B
:100120000E9432070C941D0D0C940000CF92DF92B8
:10013000EF92FF920F931F93CF93DF936C017A019D
:100140008B01C0E0D0E0CE15DF0589F0D8016D91BC
:100150008D01D601ED91FC910190F081E02DC60159
:100160000995892B11F47E0102C02196ECCFC701BD
:10017000DF91CF911F910F91FF90EF90DF90CF9083
:100180000895FC01538D448D252F30E0842F90E09D
:10019000821B930B541710F0CF9608950197089582
:1001A000FC01918D828D981761F0828DDF01A80F7F
:1001B000B11D5D968C91928D9F5F9F73928F90E0A1
:1001C00008958FEF9FEF0895FC01918D828D981710
:1001D00031F0828DE80FF11D858D90E008958FEF4D
:1001E0009FEF0895FC01918D228D892F90E0805C16
:1001F0009F4F821B91098F739927089584E792E09E
:100200000E94F20021E0892B09F420E0822F08955A
:10021000FC01848DDF01A80FB11DA35ABF4F2C91A3
:10022000848D90E001968F739927848FA689B78972
:100230002C93A089B1898C9180648C93938D848D4B
:10024000981306C00288F389E02D80818F7D80831A
:100250000895EF92FF920F931F93CF93DF93EC01DA
:1002600081E0888F9B8D8C8D981305C0E889F98972
:10027000808185FD24C0F62E0B8D10E00F5F1F4F8F
:100280000F731127E02E8C8DE8120CC00FB607FCFF
:10029000FACFE889F989808185FFF5CFCE010E94E8
:1002A0000801F1CF8B8DFE01E80FF11DE35AFF4FDE
:1002B000F0820B8FEA89FB898081806207C0EE891A
:1002C000FF896083E889F98980818064808381E087
:1002D00090E0DF91CF911F910F91FF90EF900895E3
:1002E000CF93DF93EC01888D8823C9F0EA89FB89DD
:1002F000808185FD05C0A889B9898C9186FD0FC0D4
:100300000FB607FCF5CF808185FFF2CFA889B989A8
:100310008C9185FFEDCFCE010E940801E7CFDF91E0
:10032000CF91089580E090E0892B29F00E94FE0093
:1003300081110C94000008953FB7F89480916F02EA
:1003400090917002A0917102B091720226B5A89BA3
:1003500005C02F3F19F00196A11DB11D3FBFBA2F57
:10036000A92F982F8827820F911DA11DB11DBC01B7
:10037000CD0142E0660F771F881F991F4A95D1F77C
:10038000089520912B0330912C032817390771F41D
:100390009091290380912A03981741F0E091290355
:1003A000F0E0E65DFD4F808190E008958FEF9FEFD4
:1003B000089508951F93CF93DF93DC015C962D91F0
:1003C0003C915D972115310539F481E090E0139659
:1003D0009C938E9312973DC05196ED91FC9152974C
:1003E00050969C915097892F80951FB75E964C919F
:1003F0005E9741FB772770F941FD6095F894408145
:10040000772311F0492B01C048234083E90121974C
:10041000F1F748E0508160FF02C0592B01C058231A
:100420005083E9012197F1F76695415099F77723B9
:1004300021F090818923808303C08081982B908351
:100440001FBF5C968D919C915D970197F1F721E01C
:1004500030E0C901DF91CF911F91089520912B03C6
:1004600030912C032817390771F480912A032091C9
:10047000290390E0805C9F4F821B910960E470E04B
:100480000E94EA0C089580E090E0089520912B03EB
:1004900030912C0328173907B9F4909129038091E2
:1004A0002A03981789F0E0912903F0E0E65DFD4FFB
:1004B00080812091290330E02F5F3F4F2F73332736
:1004C0002093290390E008958FEF9FEF08950895FA
:1004D00080E090E008958F929F92AF92BF92CF926A
:1004E000DF92EF92FF920F931F93CF93DF93CDB7DD
:1004F000DEB7A1970FB6F894DEBF0FBECDBF6C017B
:10050000990FEE08FF08F7FE31C0E0917402F091F8
:1005100075020190F081E02D6DE284E792E009958B
:100520008C0122273327A9012C193D094E095F09A7
:1005300019A2CE0181967C019AE0892E912CA12CE2
:10054000B12CCA01B901A50194010E94B90C605DEA
:10055000F70162937F01211531054105510589F7A6
:10056000CF010E94DC06080F191F1EC0A7019601CB
:1005700019A28E010F5D1F4F8AE0C82ED12CE12CED
:10058000F12CCA01B901A70196010E94B90C605D66
:10059000F80162938F01211531054105510589F755
:1005A000CF010E94DC068C0188E291E00E94DC060B
:1005B000800F911FA1960FB6F894DEBF0FBECDBF7E
:1005C000DF91CF911F910F91FF90EF90DF90CF902F
:1005D000BF90AF909F908F9008950E94180D1F922A
:1005E0000F920FB60F9211242F933F934F935F9367
:1005F0006F937F938F939F93AF93BF93EF93FF93EB
:1006000084E792E00E940801FF91EF91BF91AF91C2
:100610009F918F917F916F915F914F913F912F911A
:100620000F900FBE0F901F9018951F920F920FB64C
:100630000F9211242F938F939F93EF93FF93E09149
:100640008402F09185028081E0918A02F0918B0210
:1006500082FD12C0908180918D028F5F8F732091F7
:100660008E02821751F0E0918D02F0E0EC58FD4FC0
:10067000958F80938D0201C08081FF91EF919F91B2
:100680008F912F910F900FBE0F901F90189590E0B3
:10069000FC01E859FF4F3491FC01E054FF4F2491D5
:1006A000FC01E455FF4FE491EE2309F43BC03323F2
:1006B00039F1333091F038F43130A9F0323001F5AE
:1006C00084B58F7D12C0373091F03830A1F03430CE
:1006D000B9F4809180008F7D03C0809180008F7776
:1006E000809380000DC084B58F7784BD09C0809150
:1006F000B0008F7703C08091B0008F7D8093B000F1
:10070000F0E0EE0FFF1FE856FF4FA591B4918FB7B1
:10071000F894EC91611103C020952E2301C02E2B7B
:100720002C938FBF0895CF93DF9390E0FC01E054AA
:10073000FF4F2491FC01E455FF4F8491882361F120
:1007400090E0880F991FFC01E857FF4FC591D491A5
:10075000FC01E856FF4FA591B491611109C09FB704
:10076000F8948881209582238883EC912E230BC0F6
:10077000623061F49FB7F8943881822F809583238B
:100780008883EC912E2B2C939FBF06C08FB7F894D3
:10079000E8812E2B28838FBFDF91CF91089582307F
:1007A000910538F0880F991F880F991F05970197B9
:1007B000F1F708958F929F92AF92BF92CF92DF92FE
:1007C000EF92FF926B017C010E949C014B015C0146
:1007D000C114D104E104F104F1F00E949C01DC0198
:1007E000CB0188199909AA09BB09883E9340A10544
:1007F000B10570F321E0C21AD108E108F10888EED2
:10080000880E83E0981EA11CB11CC114D104E10420
:10081000F10419F7DDCFFF90EF90DF90CF90BF90FC
:10082000AF909F908F9008951F920F920FB60F92E6
:1008300011242F933F938F939F93AF93BF938091F6
:100840006B0290916C02A0916D02B0916E0230919A
:100850006A0223E0230F2D3720F40196A11DB11D5C
:1008600005C026E8230F0296A11DB11D20936A0240
:1008700080936B0290936C02A0936D02B0936E0212
:1008800080916F0290917002A0917102B0917202FA
:100890000196A11DB11D80936F0290937002A093E9
:1008A0007102B0937202BF91AF919F918F913F916E
:1008B0002F910F900FBE0F901F9018958EBD0000C6
:1008C0000DB407FEFDCF8EB50895CF92DF92EF9263
:1008D000FF920F931F93CF93DF931F92CDB7DEB795
:1008E0007C018BE291E00E94EE0680E00E9485068A
:1008F00080912103909122030E94CF038DE10E94F9
:10090000210681FF08C080912103909122030E945B
:10091000CF030E940F0680E00E942106682F6E7FA1
:1009200080E00E94380682E00E942106E2E9F0E0C1
:10093000E49161E070E001C0660FEA95EAF7682B88
:1009400082E00E94380690911803D92E923110F05F
:1009500081E1D82E80911903811103C0C92ECD18D1
:1009600001C0C12C0E940C0680EA0E945E0487012F
:10097000DA94FFEFDF1631F0F80181918F010E94C8
:100980005E04F6CFCC2029F080E00E945E04CA9479
:10099000F9CF0E94090681E00E9485060E940C069C
:1009A0008FEF0E945E0489830E940906898180730B
:1009B000A9F380E00E94850660E787E00E94380680
:1009C00084FF05C00E940F0600E010E002C001E0B5
:1009D00010E00E94A606C8010F90DF91CF911F91F1
:1009E0000F91FF90EF90DF90CF9008951F920F929C
:1009F0000FB60F9211240F900FBE0F901F901895F5
:100A00001F920F920FB60F9211240F900FBE0F90EE
:100A10001F9018951F920F920FB60F9211240F90EE
:100A20000FBE0F901F9018951F920F920FB60F9246
:100A300011242F933F934F935F936F937F938F93E3
:100A40009F93AF93BF93EF93FF93E0912B03F091AC
:100A50002C03309709F451C0968DA685B7858585FE
:100A600091FF04C09C91892329F447C09C9189235C
:100A700009F043C0A389B4899C9185898095892315
:100A80008C93868997890197F1F7608D718DA68582
:100A9000B785558538E020E0CB010197F1F7822F2B
:100AA00090E095958795282F4C91452309F0206873
:100AB000315091F7868D81FD209580912A0390E039
:100AC00001968F73992730912903381749F0A09127
:100AD0002A03B0E0A65DBD4F2C9380932A0303C088
:100AE000868D8160868F828D938D0197F1F7A38922
:100AF000B4899C918589892B8C93FF91EF91BF914B
:100B0000AF919F918F917F916F915F914F913F91A5
:100B10002F910F900FBE0F901F901895E0912B030F
:100B2000F0912C03E817F90769F4A389B4899C9123
:100B30008589809589238C9310922C0310922B0326
:100B400081E0089580E008951F920F920FB60F92F2
:100B500011242F933F934F935F936F937F938F93C2
:100B60009F93AF93BF93EF93FF93CF93DF93CDB753
:100B7000DEB76197DEBFCDBF80913A048823B1F024
:100B800080912D0390912E03019690932E038093D4
:100B90002D0381E1EDE2F3E0DE01119601900D926B
:100BA0008A95E1F7CE0101960E94650461960FB621
:100BB000F894DEBF0FBECDBFDF91CF91FF91EF91D3
:100BC000BF91AF919F918F917F916F915F914F9165
:100BD0003F912F910F900FBE0F901F901895CF93BC
:100BE000DF939CB59F7D9CBD9CB5937F9CBD9CB5C0
:100BF0009C7F9CBD9DB591609DBDC1E1D3E0682FF8
:100C00008A810E9447038C899D89DF91CF910C9442
:100C1000CF0381E00C94EF0580E00C94EF05CF93B7
:100C2000DF931F92CDB7DEB70E940C0681EE0E94C3
:100C30005E0489830E94090689810F90DF91CF911C
:100C40000895CF93DF931F92CDB7DEB789830E94BB
:100C50000C0689818F710E945E048FEF0E945E04F2
:100C600089830E94090689810F90DF91CF910895B1
:100C70001F93CF93DF9300D0CDB7DEB76A8389830C
:100C80000E940C0689818F7180620E945E04182F79
:100C90006A81862F0E945E040E940906812F0F90B0
:100CA0000F90DF91CF911F910895EF92FF920F93D4
:100CB0001F93CF93DF9300D01F92CDB7DEB7162FCF
:100CC0004A837B8389830E940C0689818F718062AD
:100CD0000E945E04082FE12E7B81F72E4A81140FBB
:100CE0001E1531F0F70181917F010E945E04F8CF5B
:100CF0000E940906802F0F900F900F90DF91CF91E7
:100D00001F910F91FF90EF90089520911103309162
:100D1000120340911303509114032417350721F057
:100D2000682F822F0C944703089580E00E942106CB
:100D300081FD0BC0682F626080E00E94380665E08C
:100D400070E080E090E00C94DA0308950E9495062C
:100D500080E00E942106682F616080E00E943806D2
:100D600060E787E00E94380681E00E948506809156
:100D70001A03882341F040911F036AE173E08AE07F
:100D80000E94550612C082E00E942106E2E9F0E0CE
:100D9000E49121E030E001C0220FEA95EAF72095C6
:100DA000622F682382E00E9438068DE10E942106AE
:100DB00081FD0C940F060895009769F0FC010190E5
:100DC0000020E9F73197AF01481B590BBC0184E7BC
:100DD00092E00C94960080E090E00895CF93DF932A
:100DE0000E94DC06EC0188E291E00E94DC068C0F98
:100DF0009D1FDF91CF9108950F931F93CF938C0187
:100E000086E00E942106C82FC77D0230110531F40B
:100E1000C0628BE990E0A0E0B0E00DC001301105A8
:100E200029F085E590E0A0E0B0E005C0C86081E46D
:100E300090E0A0E0B0E08093210390932203A09380
:100E40002303B09324036C2F86E00E94380686E0CB
:100E50000E94210691E08C1390E0892FCF911F9181
:100E60000F910895CF93DF93CDB7DEB7EB970FB611
:100E7000F894DEBF0FBECDBF789484B5826084BD88
:100E800084B5816084BD85B5826085BD85B581608E
:100E900085BD80916E00816080936E00109281000C
:100EA00080918100826080938100809181008160C7
:100EB0008093810080918000816080938000809188
:100EC000B10084608093B1008091B0008160809314
:100ED000B00080917A00846080937A0080917A00DB
:100EE000826080937A0080917A00816080937A009A
:100EF00080917A00806880937A001092C100F89403
:100F000014BC15BC16BC8FEF87BD84B5826084BD50
:100F100085B5836085BD80916E00826080936E0090
:100F20007894E0918402F091850282E08083E091E0
:100F30008002F09181021082E0918202F09183029E
:100F400080E1808310928C02E0918802F091890206
:100F500086E08083E0918602F09187028081806143
:100F60008083E0918602F09187028081886080838F
:100F7000E0918602F0918702808180688083E09111
:100F80008602F091870280818F7D808368EE73E016
:100F900080E090E00E94DA0387E391E00E94EE0691
:100FA0008091110390911203209113033091140347
:100FB0008217930719F061E00E9493038091130355
:100FC00090911403209111033091120328173907CF
:100FD00019F061E00E9493031FB7F89480917302A7
:100FE000811127C0E6EBF0E08491EAECF0E0949107
:100FF000E82FF0E0EE0FFF1FE857FF4FA591B491E7
:10100000EC91E92321F461E08AE00E94470361E06A
:101010008AE00E9493038CB580618CBD8CB580649E
:101020008CBD61E08DE00E94930361E08BE00E9443
:101030009303809173028F5F809373021FBF80E0E0
:101040000E94850681E00E94EF0565E070E080E087
:1010500090E00E94DA036CE080E00E9438066FE5C1
:1010600084E00E94380682E090E00E94FC0688231B
:1010700019F081E08093170386E00E94210680E04A
:1010800090E00E94FC060E940C0680E50E945E042F
:1010900083E70E945E040E94090660E08DE10E94E1
:1010A000380660E08CE10E9438061092190360E770
:1010B00087E00E9438066CE485E00E9438060E94B2
:1010C0000C0682EE0E945E040E9409060E940F0632
:1010D0000E94950680E00E942106682F6E7F80E0C6
:1010E0000E94380680915C0390915D030E946B0220
:1010F00080915A0390915B030E946B0260915C03A4
:101100006E3708F06DE785E00E9438068CE391E0C9
:101110000E94EE0686E00E942106682F676086E046
:101120000E9438068AE491E00E94EE0682E090E098
:101130000E94FC0687E591E00E94EE0680914E0336
:101140008CAB1DAA1EAA1FAA18AE19AE1AAE1BAEF2
:10115000E3E8F0E0849140911F03BE016C5C7F4F97
:101160000E945506EDE7F0E08491609118030E941B
:10117000380682E00E942106E3E9F0E0E49161E0B4
:1011800070E001C0660FEA95EAF7682B82E00E94E2
:10119000380687E691E00E94EE0640911F0364E561
:1011A00073E08AE00E94550640911F0364E573E0F6
:1011B00080E10E9455066091180381E10E94380683
:1011C0008FE791E00E94EE060E94A60681E08093E0
:1011D0003A0481E1382E95E0492E512C87E991E0BF
:1011E0000E94EE06EDE2F3E0DE011196832D019000
:1011F0000D928A95E1F7CE0101960E94650468EE92
:1012000073E080E090E00E94DA0387E10E9421060B
:1012100080FF09C068EE73E080E090E00E94DA038E
:101220000E949201DBCF8BEB91E00E94EE065CA660
:101230004BA61EA61DA61CA21BA287E10E9421068A
:1012400080FD2DC010911803113138F101E180911A
:101250001903811102C0101B01C010E00E940C068E
:1012600081E60E945E04CE0183967C01015038F035
:101270008FEF0E945E04F70181937F01F7CF112366
:1012800029F08FEF0E945E041150F9CF0E940906E9
:1012900060E787E00E943806D0CF012FD8CF6BA03F
:1012A0007CA08DA09EA0AFA0B8A4E9A4FAA4CBA472
:1012B000DCA40DA51EA584EC91E00E94EE068EEC48
:1012C00091E00E94DC06C3010E946B028CED91E06C
:1012D0000E94DC06C4010E946B028DEE91E00E9428
:1012E000DC06C5010E946B0285EF91E00E94DC06DE
:1012F000C7010E946B028BE092E00E94DC06C601EF
:101300000E946B0285E192E00E94DC06C8010E9407
:101310006B0282E292E00E94DC0680915A03909177
:101320005B03E816F90629F48CE991E00E94EE06C9
:1013300077CF0C151D050CF073CFFE01B396DE01BF
:101340005296832D01900D928A95E1F78CEA91E0F7
:101350000E94EE0680915A0390915B039F8B8E8BC7
:101360000F5F1F4F1D8F0C8FFE017296DE011196CD
:10137000832D01900D928A95E1F7CE0101960E948E
:1013800065044ECF8AE191E090935F0380935E0302
:101390008EE593E00C948E05CF92DF92EF92FF9250
:1013A000CF93109277021092760298EEC92E93E0B6
:1013B000D92EE12CF12CC0927802D0927902E092E1
:1013C0007A02F0927B0288E091E09093750280931C
:1013D000740285EC90E0909381028093800284EC0B
:1013E00090E0909383028093820280EC90E090934F
:1013F00085028093840281EC90E090938702809331
:10140000860282EC90E0909389028093880286ECB9
:1014100090E090938B0280938A0210928D0210923A
:101420008E0210928F021092900287E090E09093CB
:1014300012038093110388E090E09093140380934B
:1014400013031092170380E280931803109219037C
:1014500085E080931F0385E090E0A0E0B0E08093FA
:10146000250390932603A0932703B093280310929B
:101470001A0386E0EEE4F3E0DF01282F1D922A959F
:10148000E9F7E4E5F3E0DF011D928A95E9F7C1E0B1
:10149000C09354030E94770CBC01990F880B990BE1
:1014A0002CED3FEF40E050E00E94870C70935B030F
:1014B00060935A0383E790E090935D0380935C030D
:1014C0001092610310926003C0926203D092630392
:1014D000E0926403F09265038AE191E090935F03E8
:1014E00080935E0310927503109274031092770339
:1014F00010927603109279031092780310927B0376
:1015000010927A0380917C038E7F8D7F80937C0381
:1015100086958170682F6C2783E00E94470361E005
:1015200083E00E949303E3ECF0E0E491E0936E0328
:10153000EFEAF0E0E491F0E0EE0FFF1FE856FF4F16
:10154000859194919093700380936F0360E084E0A1
:101550000E94930380917C0381FD04C061E084E0DC
:101560000E94470384E080936A03E4ECF0E0E49196
:10157000E0936B03E0EBF0E0E491F0E0EE0FFF1F8F
:10158000EE55FF4F8591949190936D0380936C037A
:1015900010927D0310927E031092800310927F03BD
:1015A000109281031092820310928303109284039D
:1015B000109285031092870310928603109288037D
:1015C0001092890310928A0310928B0310928C035D
:1015D00010928E0310928D0310928F03109290033D
:1015E000109291031092920310929303109295031C
:1015F00010929403109296031092970310929803FE
:101600001092990310929A0310929F031092A003D4
:101610001092A1031092A2031092A3031092A403AC
:101620001092AD031092AE031092AF031092B0036C
:101630001092B1031092B2031092BB031092BC033C
:101640001092C1031092C2031092C3031092C403FC
:101650001092C9031092CA031092CF031092D003C4
:101660001092D1031092D2031092D7031092D80394
:101670001092DD031092DE031092DF031092E0035C
:101680001092E5031092E6031092EB031092EC0324
:101690001092ED031092EE031092F3031092F403F4
:1016A0001092F9031092FA031092FB031092FC03BC
:1016B000109201041092020482E0809312041092AE
:1016C000130410921404109215041092170410922F
:1016D0001604109219041092180410921A04109211
:1016E0001B0410921C0410921D0410921E041092F0
:1016F0001F041092200410922104109222041092D0
:1017000023041092240410922504109226041092AF
:1017100027041092280410922904109203048FE1E8
:1017200090E090937B0380937A0321E030E0309344
:101730007503209374032DE130E0309377032093F9
:1017400076032DE030E030937903209378032091E5
:1017500068002460209368002DE630E03093720327
:101760002093710320E1209373030197F1F7809197
:101770002B0390912C03B3E08E359B07E1F000978B
:1017800011F00E948E0580917C038E7F80937C03F4
:1017900010922A03109229038EE593E090932C0374
:1017A00080932B03E0917103F091720390818091FB
:1017B0007303892B808310923A0481EE9AE3A5E0AB
:1017C000B3E480933E0390933F03A0934003B09310
:1017D000410383EC9DE8A0E4B6E480934203909338
:1017E0004303A0934403B093450385ED9CEDA2E32E
:1017F000B0E08093460390934703A0934803B093CF
:10180000490381E090E090932E0380932D03909301
:10181000300380932F0382E090E090933203809313
:10182000310383E090E0909334038093330310926C
:1018300036031092350385E090E09093380380934F
:10184000370310923D0310923C03CF91FF90EF902D
:10185000DF90CF9008958F929F92AF92BF92CF92D8
:10186000DF92EF92FF92CF93DF93EC016881798151
:101870008A819B81611571058105910521F464E2DE
:1018800079ED8BE597E02DE133EF41E050E00E94E8
:10189000870C49015A019B01AC01A7EAB1E40E94FF
:1018A000A60C6B017C01ACEEB4EFA50194010E9483
:1018B000B40CDC01CB018C0D9D1DAE1DBF1DB7FF0F
:1018C00003C00197A109B04888839983AA83BB8389
:1018D0009F77DF91CF91FF90EF90DF90CF90BF90F7
:1018E000AF909F908F9008950E942B0C089580E0F8
:1018F00091E00E942B0C0895A0E0B0E080930001DD
:1019000090930101A0930201B09303010895052E65
:1019100097FB1EF400940E949E0C57FD07D00E9476
:10192000B90C07FC03D04EF40C949E0C50954095D6
:10193000309521953F4F4F4F5F4F0895909580957B
:10194000709561957F4F8F4F9F4F08950E94DB0CDC
:10195000A59F900DB49F900DA49F800D911D112403
:101960000895B7FF0C94A60C0E94A60C821B930B43
:101970000895A1E21A2EAA1BBB1BFD010DC0AA1FD0
:10198000BB1FEE1FFF1FA217B307E407F50720F0E8
:10199000A21BB30BE40BF50B661F771F881F991F63
:1019A0001A9469F760957095809590959B01AC01AC
:1019B000BD01CF010895A29FB001B39FC001A39FB5
:1019C000700D811D1124911DB29F700D811D112478
:1019D000911D089597FB072E16F4009407D077FD0C
:1019E00009D00E94FE0C07FC05D03EF4909581952D
:1019F0009F4F0895709561957F4F0895AA1BBB1B5B
:101A000051E107C0AA1FBB1FA617B70710F0A61BFE
:101A1000B70B881F991F5A95A9F780959095BC011F
:101A2000CD010895EE0FFF1F0590F491E02D09946C
:101A300081E090E0F8940C941D0D10E0CBE6D0E02E
:101A400004C0FE010E94120D2196CC36D107C9F7C1
:041A5000F894FFCF38
:101A5400010000000000000029019600C10070018F
:101A6400F200D000E40000000000DA0196006802F1
:101A7400D9012E024602C1010D0A0053656E64505D
:101A840061636B61676500496E69740041667465E2
:101A940072204368616E6E656C00416674657250B5
:101AA400414C6576656C00416674657220446174CE
:101AB400612052617465004166746572204F7065DF
:101AC4006E2052656164696E6720506970650041DB
:101AD40066746572206F70656E2077726974696EC2
:101AE400672070697065004C4F4F500050726F63EF
:101AF400657373696E67204461746100466F727721
:101B04006172645061636B6167650052656164442E
:101B1400617461000A5061636B6167653A005061EA
:101B2400636B616765204944203A20004F726967FE
:101B3400696E41646472657373203A200046726F63
:101B44006D203A200044657374696E6174696F6E28
:101B540041646472657373203A2000486F70547452
:101B64006C203A20004E756D4F66486F7073203AB2
:0A1B7400200044617461203A200053
:00000001FF
