:100000000C9466000C948E000C948E000C948E0060
:100010000C948E000C948E000C948E000C948E0028
:100020000C948E000C948E000C948E000C948E0018
:100030000C948E000C948E000C948E000C948E0008
:100040000C9429040C948E000C94F7030C94D103A7
:100050000C948E000C948E000C948E000C948E00E8
:100060000C948E000C948E00000000080002010029
:100070000003040700000000000000001112131428
:1000800015160A0B0C0D0E0F0001020304050000EB
:100090000000250028002B0000000000240027009D
:1000A0002A000404040404040404020202020202FA
:1000B000030303030303010204081020408001022C
:1000C00004081020010204081020730411241FBE2C
:1000D000CFEFD8E0DEBFCDBF22E0A4EEB1E001C09B
:1000E0001D92A93AB207E1F711E0A0E0B1E0E6E124
:1000F000F4E102C005900D92A43EB107D9F710E0DB
:10010000C6E6D0E004C02197FE010E94FE09C53674
:10011000D107C9F70E94B9040C94090A0C94000095
:1001200090E0FC01EA54FF4F2491FC01EE55FF4F93
:100130008491882399F090E0880F991FFC01E8567C
:10014000FF4FA591B491FC01E257FF4F8591949127
:100150008FB7F894EC91E22BEC938FBF0895E09168
:10016000F401F091F5010190F081E02D682F84EF0A
:1001700091E00994CF92DF92EF92FF920F931F9339
:10018000CF93DF936C017A018B01C0E0D0E0CE15F4
:10019000DF0589F0D8016D918D01D601ED91FC91BB
:1001A0000190F081E02DC6010995892B11F47E01A3
:1001B00002C02196ECCFC701DF91CF911F910F9123
:1001C000FF90EF90DF90CF900895089580E090E049
:1001D0000895FC01538D448D252F30E0842F90E04D
:1001E000821B930B541710F0CF9608950197089532
:1001F000FC01918D828D981761F0828DDF01A80F2F
:10020000B11D5D968C91928D9F5F9F73928F90E050
:1002100008958FEF9FEF0895FC01918D828D9817BF
:1002200031F0828DE80FF11D858D90E008958FEFFC
:100230009FEF0895FC01918D228D892F90E0805CC5
:100240009F4F821B91098F739927089584EF91E046
:100250000E941A0121E0892B09F420E0822F0895E1
:10026000FC01848DDF01A80FB11DA35ABF4F2C9153
:10027000848D90E001968F739927848FA689B78922
:100280002C93A089B1898C9180648C93938D848DFB
:10029000981306C00288F389E02D80818F7D8083CA
:1002A0000895EF92FF920F931F93CF93DF93EC018A
:1002B00081E0888F9B8D8C8D981305C0E889F98922
:1002C000808185FD24C0F62E0B8D10E00F5F1F4F3F
:1002D0000F731127E02E8C8DE8120CC00FB607FCAF
:1002E000FACFE889F989808185FFF5CFCE010E9498
:1002F0003001F1CF8B8DFE01E80FF11DE35AFF4F66
:10030000F0820B8FEA89FB898081806207C0EE89C9
:10031000FF896083E889F98980818064808381E036
:1003200090E0DF91CF911F910F91FF90EF90089592
:10033000CF93DF93EC01888D8823C9F0EA89FB898C
:10034000808185FD05C0A889B9898C9186FD0FC083
:100350000FB607FCF5CF808185FFF2CFA889B98958
:100360008C9185FFEDCFCE010E943001E7CFDF9168
:10037000CF91089580E090E0892B29F00E9426011A
:1003800081110C940000089590E0FC01E859FF4FA2
:100390003491FC01EA54FF4F2491FC01EE55FF4FCC
:1003A000E491EE2309F43BC0332339F1333091F06B
:1003B00038F43130A9F0323001F584B58F7D12C0A8
:1003C000373091F03830A1F03430B9F480918000AA
:1003D0008F7D03C0809180008F77809380000DC057
:1003E00084B58F7784BD09C08091B0008F7703C03A
:1003F0008091B0008F7D8093B000F0E0EE0FFF1F82
:10040000E257FF4FA591B4918FB7F894EC91611129
:1004100003C020952E2301C02E2B2C938FBF08954F
:100420002091910230919202409193025091940256
:100430002417350721F0682F822F0C94C4010895EA
:100440008230910538F0880F991F880F991F059702
:100450000197F1F708953FB7F8948091E9019091E1
:10046000EA01A091EB01B091EC0126B5A89B05C073
:100470002F3F19F00196A11DB11D3FBFBA2FA92F23
:10048000982F8827820F911DA11DB11DBC01CD01A0
:1004900042E0660F771F881F991F4A95D1F708958C
:1004A0008F929F92AF92BF92CF92DF92EF92FF9284
:1004B0006B017C010E942B024B015C01C114D10431
:1004C000E104F104F1F00E942B02DC01CB01881958
:1004D0009909AA09BB09883E9340A105B10570F3AB
:1004E00021E0C21AD108E108F10888EE880E83E005
:1004F000981EA11CB11CC114D104E104F10419F728
:10050000DDCFFF90EF90DF90CF90BF90AF909F90A6
:100510008F9008958EBD00000DB407FEFDCF8EB5FF
:100520000895CF93DF939CB59F7D9CBD9CB5937F31
:100530009CBD9CB59C7F9CBD9DB591609DBDC1E956
:10054000D2E0682F8A810E94C4018C899D89DF9145
:10055000CF910C94200281E00C94910280E00C94E5
:1005600091021F93CF93DF9300D0CDB7DEB76A839C
:1005700089830E94AE0289818F7180620E948A0203
:10058000182F6A81862F0E948A020E94AB02812F57
:100590000F900F90DF91CF911F910895EF92FF92EE
:1005A0000F931F93CF93DF9300D01F92CDB7DEB789
:1005B000162F4A837B8389830E94AE0289818F71C3
:1005C00080620E948A02082FE12E7B81F72E4A81E9
:1005D000140F1E1531F0F70181917F010E948A02EC
:1005E000F8CF0E94AB02802F0F900F900F90DF91F9
:1005F000CF911F910F91FF90EF900895CF93DF93CC
:100600001F92CDB7DEB789830E94AE0289818F71B8
:100610000E948A028FEF0E948A0289830E94AB02A5
:1006200089810F90DF91CF9108950F931F93CF93FE
:100630008C0186E00E94FE02C82FC77D02301105A2
:1006400031F4C0628BE990E0A0E0B0E00DC0013071
:10065000110529F085E590E0A0E0B0E005C0C86094
:1006600081E490E0A0E0B0E08093A1029093A20228
:10067000A093A302B093A4026C2F86E00E94B10263
:1006800086E00E94FE0291E08C1390E0892FCF91CA
:100690001F910F91089580E00E94FE0281FD0BC022
:1006A000682F626080E00E94B10265E070E080E047
:1006B00090E00C9450020895CF93DF931F92CDB732
:1006C000DEB70E94AE0281EE0E948A0289830E94F8
:1006D000AB0289810F90DF91CF910895009769F067
:1006E000FC0101900020E9F73197AF01481B590B3D
:1006F000BC0184EF91E00C94BA0080E090E0089592
:10070000CF93DF930E946E03EC018CE791E00E948F
:100710006E038C0F9D1FDF91CF9108958F929F9252
:10072000AF92BF920F931F93CF93DF93CDB7DEB7F6
:10073000A1970FB6F894DEBF0FBECDBF19A242300D
:1007400008F44AE08E010F5D1F4F842E912CA12CDE
:10075000B12CA50194010E94DC09E62FB901CA0160
:1007600001501109EA3014F4E05D01C0E95CD801E0
:10077000EC93232B242B252B61F7C8010E946E03D9
:10078000A1960FB6F894DEBF0FBECDBFDF91CF911B
:100790001F910F91BF90AF909F908F9008950E94EE
:1007A000040A1F920F920FB60F9211242F933F93BA
:1007B0004F935F936F937F938F939F93AF93BF9369
:1007C000EF93FF9384EF91E00E943001FF91EF914E
:1007D000BF91AF919F918F917F916F915F914F9159
:1007E0003F912F910F900FBE0F901F9018951F9261
:1007F0000F920FB60F9211242F938F939F93EF9325
:10080000FF93E0910402F09105028081E0910A02D9
:10081000F0910B0282FD12C0908180910D028F5FDA
:100820008F7320910E02821751F0E0910D02F0E0DB
:10083000EC50FE4F958F80930D0201C08081FF9197
:10084000EF919F918F912F910F900FBE0F901F905E
:1008500018951F920F920FB60F9211242F933F936A
:100860008F939F93AF93BF938091E5019091E601A1
:10087000A091E701B091E8013091E40123E0230F5A
:100880002D3720F40196A11DB11D05C026E8230FC8
:100890000296A11DB11D2093E4018093E501909380
:1008A000E601A093E701B093E8018091E9019091FE
:1008B000EA01A091EB01B091EC010196A11DB11DDF
:1008C0008093E9019093EA01A093EB01B093EC01CE
:1008D000BF91AF919F918F913F912F910F900FBE3C
:1008E0000F901F901895E4EFF1E01382128288EECA
:1008F00093E0A0E0B0E084839583A683B7838EE67F
:1009000091E09183808385EC90E09587848784ECE7
:1009100090E09787868780EC90E0918B808B81ECCC
:1009200090E0938B828B82EC90E0958B848B86ECAD
:1009300090E0978B868B118E128E138E148EE1E9C8
:10094000F2E087E090E09183808388E090E09383F9
:100950008283168280E28783108685E0868785E021
:1009600090E0A0E0B0E0848B958BA68BB78B1186CE
:100970000895CF93DF93CDB7DEB729970FB6F894DC
:10098000DEBF0FBECDBF789484B5826084BD84B5D0
:10099000816084BD85B5826085BD85B5816085BD7A
:1009A00080916E00816080936E0010928100809132
:1009B00081008260809381008091810081608093BA
:1009C0008100809180008160809380008091B100DF
:1009D00084608093B1008091B00081608093B0000A
:1009E00080917A00846080937A0080917A0082609E
:1009F00080937A0080917A00816080937A00809160
:100A00007A00806880937A001092C100E09104021D
:100A1000F091050282E08083E0910002F0910102F2
:100A20001082E0910202F091030280E18083109233
:100A30000C02E0910802F091090286E08083E091C7
:100A40000602F0910702808180618083E0910602B6
:100A5000F0910702808188608083E0910602F09126
:100A60000702808180688083E0910602F09107028E
:100A700080818F7D8083809191029091920220915C
:100A80009302309194028217930711F00E94900014
:100A90008091930290919402209191023091920260
:100AA0002817390711F00E9490001FB7F894809121
:100AB000ED01811124C0ECEAF0E08491E0ECF0E07B
:100AC0009491E82FF0E0EE0FFF1FE856FF4FA5913D
:100AD000B491EC91E92321F461E08AE00E94C40121
:100AE0008AE00E9490008CB580618CBD8CB58064DA
:100AF0008CBD8DE00E9490008BE00E949000809160
:100B0000ED018F5F8093ED011FBF80E00E94100216
:100B100081E00E94910265E070E080E090E00E9438
:100B200050026CE080E00E94B1026FE584E00E9418
:100B3000B10282E090E00E941503882319F081E061
:100B40008093970286E00E94FE02182F80E090E0DA
:100B50000E9415030E94AE0280E50E948A0283E78C
:100B60000E948A020E94AB0260E08DE10E94B10205
:100B700060E08CE10E94B1021092990260E787E088
:100B80000E94B1026CE485E00E94B1020E94AE02B4
:100B900082EE0E948A020E94AB020E945C030E94C5
:100BA0004B0380E00E94FE02682F6E7F80E00E946F
:100BB000B102115060ED77E080E090E01E3F28F434
:100BC0000E9450028FE791E004C00E9450028DE81D
:100BD00091E00E94800363E785E00E94B10286E015
:100BE0000E94FE02682F676086E00E94B10282E0E8
:100BF00090E00E941503E3E8F0E0849140919F02A9
:100C00006EEE71E00E94CE02EDE7F0E0849160911B
:100C100098020E94B10282E00E94FE02E9E8F0E040
:100C2000E49161E070E001C0660FEA95EAF7682B95
:100C300082E00E94B10281E089831A821B821C82B9
:100C40001D821E821F82188640919F02BE016F5F27
:100C50007F4F8AE00E94CE0240919F02BE016F5FEB
:100C60007F4F80E10E94CE026091980281E10E9454
:100C7000B10268EE73E080E090E00E94500248E824
:100C8000E42E40E0F42ECC24C394D12C01E28FE971
:100C900091E00E9480030E944B0380E00E94FE02CC
:100CA000682F616080E00E94B10260E787E00E94E7
:100CB000B10281E00E94100280919A02882341F0E3
:100CC00040919F026AE972E08AE00E94CE020FC062
:100CD00082E00E94FE02F7019491B60101C0660F06
:100CE0009A95EAF76095682382E00E94B1028DE14F
:100CF0000E94FE0281FD0E945C0387E10E94FE02C9
:100D000080FD06C087E10E94FE0280FF0EC042C047
:100D100083EC91E00E94800368EE73E080E090E055
:100D20000E9450020E94BA01B2CF8CEC91E00E9466
:100D30008003109198021A3658F13AE6B32E80914A
:100D40009902811102C01B1901C010E00E94AE027D
:100D500081E60E948A0220E0822E21E0922EBA943F
:100D6000FFEFBF1639F08FEF0E948A02F4018193E2
:100D70004F01F5CF112329F08FEF0E948A02115005
:100D8000F9CF0E94AB0260E787E00E94B102BACFC0
:100D9000B12ED5CF8AED91E00E946E0380900001C4
:100DA00090900101092C000CAA08BB08B7FE0CC0EA
:100DB0008DE20E94AF0066277727CB016819790979
:100DC0008A099B094AE003C04AE0C501B4010E94B8
:100DD0008E038CE791E00E946E0380900201909058
:100DE0000301A0900401B0900501A5019401C50183
:100DF000B4010E94D709882319F084EA91E01AC04F
:100E000024013501E89477F82FEF3FEF4FE75FE7D4
:100E1000C301B2010E94D70981110FC02FEF3FEF2C
:100E20004FE75FE7C301B2010E947F0818162CF458
:100E300088EA91E00E946E0372C02FEF3FEF4FE708
:100E40005FE4C501B4010E94650918161CF48CEA20
:100E500091E0F0CF2FEF3FEF4FE75FECC501B4011A
:100E60000E947F0887FDF3CF20E030E0A901C50193
:100E7000B4010E947F0887FF07C08DE20E94AF0087
:100E8000B7FAB094B7F8B0942AE037ED43EA5BE3E1
:100E9000C501B4010E9413082B013C010E94840883
:100EA0004B015C010E94B3089B01AC01C301B2017C
:100EB0000E9412082B013C014AE0C501B4010E94C6
:100EC0008E038EE20E94AF0020E030E040E251E469
:100ED000C301B2010E946A092B013C010E948408EF
:100EE0004B01A12CB12C4AE0C501B4010E948E0334
:100EF000C501B4010E94B3089B01AC01C301B2015A
:100F00000E94120820E030E040E251E40E946A09A9
:100F10000E94840880E090E04AE00E948E038CE703
:100F200091E00E946E0386E091E00E948003809130
:100F3000000180FDF1CE80E00E9410028091A102AC
:100F40009091A2020E9420028DE10E94FE0281FF88
:100F500008C08091A1029091A2020E9420020E94EA
:100F60005C0380E00E94FE02682F6E7F80E00E949A
:100F7000B10282E00E94FE02F7019491960101C045
:100F8000220F9A95EAF7682F622B82E00E94B10245
:100F900080EB91E00E948003009310011091980271
:100FA000B12E1B3610F09AE6B92E8091990281116C
:100FB00002C01B1901C010E00E94AE0280EA0E942C
:100FC0008A0280E0882E81E0982EBA94FFEFBF1647
:100FD00031F0F40181914F010E948A02F6CF112372
:100FE00029F080E00E948A021150F9CF0E94AB02E2
:100FF00081E00E9410020E94AE028FEF0E948A02DE
:1010000089870E94AB0289858073A9F380E00E94E2
:10101000100260E787E00E94B10284FF7DCE0E944B
:101020005C037ACE5058BB27AA270E942A080C944A
:101030002B090E941D0938F00E94240920F039F480
:101040009F3F19F426F40C941A090EF4E095E7FB7F
:101050000C941409E92F0E943C0958F3BA1762074F
:1010600073078407950720F079F4A6F50C945E09C0
:101070000EF4E0950B2EBA2FA02D0B01B9019001B3
:101080000C01CA01A0011124FF27591B99F0593FF7
:1010900050F4503E68F11A16F040A22F232F342F3F
:1010A0004427585FF3CF469537952795A795F0408D
:1010B0005395C9F77EF41F16BA0B620B730B840BA2
:1010C000BAF09150A1F0FF0FBB1F661F771F881F5A
:1010D000C2F70EC0BA0F621F731F841F48F48795B2
:1010E00077956795B795F7959E3F08F0B0CF9395A4
:1010F000880F08F09927EE0F9795879508950E941D
:10110000F00808F481E008950E94440988F09F5790
:1011100098F0B92F9927B751B0F0E1F0660F771F1B
:10112000881F991F1AF0BA95C9F714C0B13091F011
:101130000E945E09B1E008950C945E09672F782F34
:101140008827B85F39F0B93FCCF3869577956795D6
:10115000B395D9F73EF490958095709561957F4F42
:101160008F4F9F4F0895E89409C097FB3EF49095E8
:101170008095709561957F4F8F4F9F4F9923A9F070
:10118000F92F96E9BB279395F695879577956795FF
:10119000B795F111F8CFFAF4BB0F11F460FF1BC043
:1011A0006F5F7F4F8F4F9F4F16C0882311F096E9D6
:1011B00011C0772321F09EE8872F762F05C0662384
:1011C00071F096E8862F70E060E02AF09A95660F3D
:1011D000771F881FDAF7880F9695879597F90895F6
:1011E000990F0008550FAA0BE0E8FEEF1616170638
:1011F000E807F907C0F012161306E407F50798F0A0
:10120000621B730B840B950B39F40A2661F0232BB8
:10121000242B252B21F408950A2609F4A140A69534
:101220008FEF811D811D089597F99F6780E870E019
:1012300060E008959FEF80EC089500240A9416164C
:10124000170618060906089500240A9412161306B4
:10125000140605060895092E0394000C11F4882342
:1012600052F0BB0F40F4BF2B11F460FF04C06F5F5E
:101270007F4F8F4F9F4F089557FD9058440F551F34
:1012800059F05F3F71F04795880F97FB991F61F008
:101290009F3F79F087950895121613061406551F7F
:1012A000F2CF4695F1DF08C0161617061806991FEB
:1012B000F1CF86957105610508940895E894BB27E0
:1012C00066277727CB0197F908950E94F00808F464
:1012D0008FEF08950E947D090C942B090E941D092F
:1012E00038F00E94240920F0952311F00C94140981
:1012F0000C941A0911240C945F090E943C0970F3A4
:10130000959FC1F3950F50E0551F629FF001729FAA
:10131000BB27F00DB11D639FAA27F00DB11DAA1FB9
:10132000649F6627B00DA11D661F829F2227B00D06
:10133000A11D621F739FB00DA11D621F839FA00D91
:10134000611D221F749F3327A00D611D231F849FE1
:10135000600D211D822F762F6A2F11249F57504038
:101360009AF0F1F088234AF0EE0FFF1FBB1F661FB3
:10137000771F881F91505040A9F79E3F510580F07C
:101380000C9414090C945F095F3FE4F3983ED4F386
:10139000869577956795B795F795E7959F5FC1F720
:1013A000FE2B880F911D9695879597F908950E94B9
:1013B000F008880B990B0895A1E21A2EAA1BBB1BFB
:1013C000FD010DC0AA1FBB1FEE1FFF1FA217B30711
:1013D000E407F50720F0A21BB30BE40BF50B661F27
:1013E000771F881F991F1A9469F7609570958095EB
:1013F00090959B01AC01BD01CF010895EE0FFF1F39
:101400000590F491E02D099481E090E0F8940C941B
:06141000090AF894FFCF69
:10141600010033339341656D70747900000000005C
:1014260000000000000000000000000000000000B6
:1014360000000000000000000000000000000000A6
:101446000000000000000000000000000000000096
:101456000000000000000000000000000000000086
:101466000000000000000000000000000000000076
:101476000000000000000000000000000000510114
:10148600BA00E90098011A01F8000C010D0A005291
:101496004144494F204953204F50454E0052414444
:1014A600494F204953204E4F54204F50454E004C33
:1014B6004F4F50006E616E00696E66006F76660073
:1014C600466F7277617264696E67206D65737361CA
:1014D6006765004E6F20446174612100526563693F
:1014E600657665642044617461000A5061636B61CE
:0414F60067653A00EC
:00000001FF
