:100000000C9430010C9458010C9458010C942A065D
:100010000C942A060C942A060C9458010C9458014E
:100020000C9458010C9458010C9458010C94160629
:100030000C940C060C9420060C9458010C94580156
:100040000C94BB050C9458010C942B0B0C94050BD1
:100050000C9458010C9458010C9458010C945801BC
:100060000C9458010C9458011A132C132F133613A7
:100070003D136B1372137F138C13981398139813FB
:100080009813981398139813981398139813981318
:100090009813981398139813981398139813981308
:1000A00098139813981398131A1327132C132F13BC
:1000B00036133D13441351135E134E414E494E49BE
:1000C0005459494E46CDCCCC3D0AD7233C17B7D125
:1000D0003877CC2B329595E6241FB14F0A000020CB
:1000E000410000C84200401C4620BCBE4CCA1B0E4A
:1000F0005AAEC59D7400407A10F35A00A0724E1893
:10010000090010A5D4E80000E87648170000E40BC9
:1001100054020000CA9A3B000000E1F5050000808F
:10012000969800000040420F000000A086010000E9
:1001300000102700000000E8030000000064000039
:100140000000000A00000000000100000000002C78
:1001500076D888DC674F0823DFC1DFAE59E1B1B73D
:1001600096E5E3E453C63AE651997696E8E6C2840A
:1001700026EB898C9B62ED407C6FFCEFBC9C9F4022
:10018000F2BAA56FA5F490055A2AF75C936B6CF947
:10019000676DC11BFCE0E40D47FEF520E6B500D01D
:1001A000ED902E0300943577050080841E08000032
:1001B000204E0A000000C80C333333330F986E1200
:1001C000831141EF8D2114893BE65516CFFEE6DB06
:1001D00018D1844B381BF77C1D901DA4BBE4242050
:1001E0003284725E228100C9F124ECA1E53D270032
:1001F00000000800020100000304070000000000E6
:100200000000001112131415160A0B0C0D0E0F002E
:10021000000000240027002A00000102030405005A
:10022000000000250028002B00000000002300260D
:10023000002900040404040404040402020202026B
:10024000020303030303030102040810204080019A
:10025000020408102001020408102000361BFD1AB9
:1002600011241FBECFEFD8E0DEBFCDBF13E0A0E06A
:10027000B1E0EAEBF0E502C005900D92A434B107BD
:10028000D9F726E0A4E4B3E001C01D92A032B20782
:10029000E1F711E0CFE2D1E004C02197FE010E9416
:1002A0003F27CE32D107C9F70E941F170C94502860
:1002B0000C94000020913E0430913F042817390728
:1002C00071F490913C0480913D04981741F0E091C5
:1002D0003C04F0E0EA5BFC4F808190E008958FEFF2
:1002E0009FEF089508951F93CF93DF93DC015C96F1
:1002F0002D913C915D972115310539F481E090E015
:1003000013969C938E9312973DC05196ED91FC915C
:10031000529750969C915097892F80951FB75E9663
:100320004C915E9741FB772770F941FD6095F894F9
:100330004081772311F0492B01C048234083E90114
:100340002197F1F748E0508160FF02C0592B01C0AE
:1003500058235083E9012197F1F76695415099F7A9
:10036000772321F090818923808303C08081982B9B
:1003700090831FBF5C968D919C915D970197F1F7DB
:1003800021E030E0C901DF91CF911F9108952091C4
:100390003E0430913F042817390771F480913D04E1
:1003A00020913C0490E0805C9F4F821B910960E4A7
:1003B00070E00E942B27089580E090E0089520913E
:1003C0003E0430913F0428173907B9F490913C045A
:1003D00080913D04981789F0E0913C04F0E0EA5BDD
:1003E000FC4F808120913C0430E02F5F3F4F2F7302
:1003F000332720933C0490E008958FEF9FEF0895FA
:10040000089580E090E0089521E0FC01428953893D
:10041000FB0182899389481759070CF020E0822F4D
:100420000895CF93DF93EC018AE591E00E946E0E70
:100430008A859B850E943B0E87E691E00E946E0EA6
:1004400088859985DF91CF910C943B0E20E331E0B4
:10045000FC0121933193CF010C94AB1520E331E0E3
:10046000FC0121933193CF010C94AB15BF92CF9235
:10047000DF92EF92FF920F931F93CF93DF9300D001
:1004800000D000D0CDB7DEB76C018B0163E971E01D
:10049000CE0101960E94E515D80114968D919C918C
:1004A0001597892B79F0ED91FC911197F1801182CC
:1004B0006D917C91CE0101960E941810D801ED91AA
:1004C000FC91F182CE0101960E948B0FF601738799
:1004D0006287CE0101960E94AB1563E971E0CE01FF
:1004E00001960E94E515D8011496ED90FC901597A1
:1004F000B3E0EB16F104F0F0E6E0EE16F10418F0CC
:1005000086E0E82EF12CD801ED91FC911197EE0DCB
:10051000FF1DB08010826D917C916E5F7F4FCE0188
:1005200001960E941810F80180819181FC01EE0D66
:10053000FF1DB082CE0101960E948B0FD601199645
:100540007C936E931897CE0101960E94AB15269668
:100550000FB6F894DEBF0FBECDBFDF91CF911F91D4
:100560000F91FF90EF90DF90CF90BF900895CF93C1
:10057000DF93EC010E942602CE01DF91CF910C9413
:100580003D21CF93DF93EC010E942E02CE01DF913B
:10059000CF910C943D21EF92FF920F931F93CF9335
:1005A000DF93CDB7DEB762970FB6F894DEBF0FBE0C
:1005B000CDBF8C017B01FB01608571854AE0CE01D6
:1005C0000D960E94B015F701628573854AE0CE0151
:1005D00001960E94B015BE016F5F7F4FCE01079656
:1005E0000E94DC15CE0107960E94C40FBE01635F16
:1005F0007F4F0E94E40FBC01C8010E94DC15CE01B0
:1006000007960E94AB15CE0101960E94AB15CE0154
:100610000D960E94AB15C80162960FB6F894DEBF26
:100620000FBECDBFDF91CF911F910F91FF90EF9043
:1006300008955F926F927F928F929F92AF92BF9236
:10064000CF92DF92EF92FF920F931F93CF93DF939E
:10065000CDB7DEB76A970FB6F894DEBF0FBECDBF39
:100660007C016B0163E971E0CE0101960E94E51502
:100670008E01095F1F4F5E0129E1A20EB11C3801F6
:1006800063E971E0C8010E94E5150A5F1F4F0A1572
:100690001B05B1F700E010E0812C912C86E0582E6C
:1006A000F601848195810817190738F5F601208134
:1006B00031812115310539F0F901E00FF11F8081F9
:1006C0008C32A9F001C080E0898F1A8E589CC0013D
:1006D000599C900D112441E050E0B50121E030E03B
:1006E0002C0F3D1F820F931F0E94960F03C03FEFF8
:1006F000831A930A0F5F1F4FD3CF89819A81009786
:1007000019F00E94881E03C060E070E0CB01F70181
:1007100060877187828793878F819885009719F00A
:100720000E94881E03C060E070E0CB01F70164877F
:10073000758786879787CE010D960E948B0FF701EC
:10074000608B718B828B938BCE0143960E948B0FB3
:10075000F701648B758B868B978BCE0143960E9435
:10076000AB15CE010D960E94AB15C3010E94AB15CF
:10077000CE0101960E94AB156A960FB6F894DEBFC3
:100780000FBECDBFDF91CF911F910F91FF90EF90E2
:10079000DF90CF90BF90AF909F908F907F906F90A1
:1007A0005F900895CF93DF93EC0180E791E00E9482
:1007B0006E0E6C857D858E859F850E94730E8DE7FC
:1007C00091E00E946E0E688579858A859B850E94DE
:1007D000730E89E891E00E946E0E688979898A8992
:1007E0009B894AE00E94ED0D61E971E08FE993E099
:1007F0000E94FA1584E991E00E946E0E6C897D8951
:100800008E899F894AE00E94ED0D61E971E08FE9D0
:1008100093E0DF91CF910C94FA15CF92DF92EF9293
:10082000FF920F931F93CF93DF93CDB7DEB7E99776
:100830000FB6F894DEBF0FBECDBF6C017B01FB018C
:1008400064897589868997891DAA1CAA1FAA1EAA70
:1008500019AE18AE2AE0AE014F5F5F4F0E94DE1E58
:10086000BE016F5F7F4FCE01C4960E941810F70142
:1008700060897189828993891FA61EA619AA18AA60
:100880001BAA1AAA2AE0AE014F5F5F4F0E94DE1E2C
:10089000BE016F5F7F4FCE018E960E941810F70148
:1008A000608571858285938519A618A61BA61AA650
:1008B0001DA61CA68E010F5F1F4F23E045E00E947E
:1008C0000C1EBC01CE0188960E941810F7016485A9
:1008D0007585868597851BA21AA21DA21CA21FA240
:1008E0001EA223E045E00E940C1EBC01CE018296B0
:1008F0000E941810BE016E5D7F4FC8010E94DC157A
:10090000C8010E94C40FBE01685D7F4F0E94E40FC2
:100910000E94C40FBE01625D7F4F0E94E40F0E94DF
:10092000C40FBE016C5C7F4F0E94E40FBC01C60186
:100930000E94DC15C8010E94AB15CE0182960E9470
:10094000AB15CE0188960E94AB15CE018E960E9403
:10095000AB15CE01C4960E94AB15C601E9960FB641
:10096000F894DEBF0FBECDBFDF91CF911F910F91E5
:10097000FF90EF90DF90CF90089590E0FC01E1515F
:10098000FE4F3491FC01E95BFD4F2491FC01ED5CCD
:10099000FD4FE491EE2309F43BC0332339F13330AA
:1009A00091F038F43130A9F0323001F584B58F7D03
:1009B00012C0373091F03830A1F03430B9F4809162
:1009C00080008F7D03C0809180008F7780938000AE
:1009D0000DC084B58F7784BD09C08091B0008F773A
:1009E00003C08091B0008F7D8093B000F0E0EE0FE7
:1009F000FF1FE15EFD4FA591B4918FB7F894EC9184
:100A0000611103C020952E2301C02E2B2C938FBF84
:100A10000895CF93DF9390E0FC01E95BFD4F2491B3
:100A2000FC01ED5CFD4F8491882361F190E0880F1B
:100A3000991FFC01E15FFD4FC591D491FC01E15E7E
:100A4000FD4FA591B491611109C09FB7F8948881B9
:100A5000209582238883EC912E230BC0623061F4B1
:100A60009FB7F8943881822F809583238883EC91F7
:100A70002E2B2C939FBF06C08FB7F894E8812E2BA6
:100A800028838FBFDF91CF9108958230910538F090
:100A9000880F991F880F991F05970197F1F70895FF
:100AA0003FB7F89480918B0390918C03A0918D03B4
:100AB000B0918E0326B5A89B05C02F3F19F0019673
:100AC000A11DB11D3FBFBA2FA92F982F8827820FD4
:100AD000911DA11DB11DBC01CD0142E0660F771F24
:100AE000881F991F4A95D1F708958F929F92AF92D0
:100AF000BF92CF92DF92EF92FF926B017C010E9436
:100B000050054B015C01C114D104E104F104F1F082
:100B10000E945005DC01CB0188199909AA09BB097B
:100B2000883E9340A105B10570F321E0C21AD108B7
:100B3000E108F10888EE880E83E0981EA11CB11C24
:100B4000C114D104E104F10419F7DDCFFF90EF9057
:100B5000DF90CF90BF90AF909F908F9008952FB768
:100B6000F894609187037091880380918903909134
:100B70008A032FBF08951F920F920FB60F92112470
:100B80002F933F938F939F93AF93BF93809187034E
:100B900090918803A0918903B0918A0330918603D4
:100BA00023E0230F2D3720F40196A11DB11D05C0B0
:100BB00026E8230F0296A11DB11D20938603809382
:100BC000870390938803A0938903B0938A0380914D
:100BD0008B0390918C03A0918D03B0918E030196AD
:100BE000A11DB11D80938B0390938C03A0938D0363
:100BF000B0938E03BF91AF919F918F913F912F91B1
:100C00000F900FBE0F901F9018958EBD00000DB471
:100C100007FEFDCF8EB508951F920F920FB60F926B
:100C200011240F900FBE0F901F9018951F920F92D6
:100C30000FB60F9211240F900FBE0F901F901895B2
:100C40001F920F920FB60F9211240F900FBE0F90AC
:100C50001F9018951F920F920FB60F9211242F9389
:100C60003F934F935F936F937F938F939F93AF9334
:100C7000BF93EF93FF93E0913E04F0913F043097D0
:100C800009F451C0968DA685B785858591FF04C06E
:100C90009C91892329F447C09C91892309F043C082
:100CA000A389B4899C918589809589238C938689B1
:100CB00097890197F1F7608D718DA685B785558568
:100CC00038E020E0CB010197F1F7822F90E0959575
:100CD0008795282F4C91452309F02068315091F7D2
:100CE000868D81FD209580913D0490E001968F7363
:100CF000992730913C04381749F0A0913D04B0E0A9
:100D0000AA5BBC4F2C9380933D0403C0868D816009
:100D1000868F828D938D0197F1F7A389B4899C9179
:100D20008589892B8C93FF91EF91BF91AF919F9112
:100D30008F917F916F915F914F913F912F910F9084
:100D40000FBE0F901F901895E0913E04F0913F0464
:100D5000E817F90769F4A389B4899C91858980957E
:100D600089238C9310923F0410923E0481E00895F1
:100D700080E00895CF93DF93EC018A859B85AC8555
:100D8000BD858E839F83A887B9870E94AF056A833C
:100D90007B838C839D8381E089838883DF91CF91DE
:100DA0000895CF93DF93EC016CE971E08FE993E054
:100DB0000E940F1686EA91E00E946E0E888199814A
:100DC0000E943B0E84EB91E00E946E0E8A819B8113
:100DD0000E943B0E85EC91E00E946E0E8C819D81FD
:100DE0000E943B0E8DEC91E00E946E0E8E819F81E1
:100DF0000E943B0E83EE91E00E946E0E88859985DD
:100E00000E943B0E8DEE91E00E946E0E8A859B85BE
:100E10000E943B0E8AEF91E0DF91CF910C946E0E11
:100E200044960C942F10CF93DF93EC0185E090E073
:100E3000998788871B861A8663E971E0CE014496FC
:100E40000E94E51519821882DF91CF910895CF9203
:100E5000DF92EF92FF920F931F93CF93DF9300D017
:100E600000D000D0CDB7DEB77C016B0180E391E00C
:100E7000F701819391938F0163E971E0CF010E94A3
:100E8000E51580E191E0F70191838083B601C80107
:100E90000E942F10B601CE0101960E94DC15BE0102
:100EA0006F5F7F4FC7010E943602CE0101960E94FC
:100EB000AB1526960FB6F894DEBF0FBECDBFDF91FF
:100EC000CF911F910F91FF90EF90DF90CF900895F9
:100ED0000F931F93CF93DF93EC018B01FB01808174
:100EE000918199838883828193819B838A83848182
:100EF00095819D838C83868197819F838E83808556
:100F0000918599878887828593859B878A87848541
:100F100095859D878C87868597859F878E87808915
:100F20009189998B888B828993899B8B8A8B6C5E44
:100F30007F4FCE0144960E94DC15F801828D938D7F
:100F40009B8F8A8FDF91CF911F910F910895CF9240
:100F5000DF92EF92FF920F931F93CF93DF93CDB762
:100F6000DEB76D970FB6F894DEBF0FBECDBF7C0124
:100F700062E072E08FE993E00E940F1680E00E9429
:100F8000A30C80911206909113060E9445058DE1F5
:100F90000E943F0C81FF08C08091120690911306B9
:100FA0000E9445050E942D0C80E00E943F0C682F96
:100FB0006E7F80E00E94560C82E00E943F0CE9E1C7
:100FC000F2E0E49161E070E001C0660FEA95EAF7B3
:100FD000682B82E00E94560C10910906012F1D31EA
:100FE00008F00CE180910A06811102C0101B01C0BB
:100FF00010E00E942A0C80EA0E9405066701015059
:1010000030F0F60181916F010E940506F8CF11239F
:1010100029F080E00E9405061150F9CF0E94270CAC
:1010200081E00E94A30C0E942A0C8FEF0E9405060B
:101030008D8F0E94270C8D8D8073A9F380E00E9414
:10104000A30C60E787E00E94560C84FF05C00E9455
:101050002D0CC12CD12C03C0CC24C394D12C0E94C4
:10106000C40CF7010685178502301105FCF06EE00F
:1010700072E08FE993E00E940F16C8010E943B0EB8
:1010800001501109F7011787068780899189938B91
:10109000828BB701CE0101960E946807CE010196AE
:1010A0000E94300DCE0145960E94AB15C6016D968B
:1010B0000FB6F894DEBF0FBECDBFDF91CF911F9169
:1010C0000F91FF90EF90DF90CF9008950F931F93B3
:1010D000CF93DF93EC018B01FB0180819181998398
:1010E0008883828193819B838A83848195819D8378
:1010F0008C83868197819F838E8380859185998754
:101100008887828593859B878A87848595859D8737
:101110008C87868597859F878E8780899189998B13
:10112000888B828993899B8B8A8B6C5E7F4FCE01E3
:1011300044960E942F10F801828D938D9B8F8A8F89
:10114000CE01DF91CF911F910F9108956F927F9201
:101150008F929F92AF92BF92CF92DF92EF92FF92C7
:101160000F931F93CF93DF93CDB7DEB7E8970FB6FA
:10117000F894DEBF0FBECDBF62E272E08FE993E06C
:101180000E940F16C0904403D09045038FEFC81AF9
:10119000D80AD0924503C09244038091500488231A
:1011A00009F441C16091FA057091FB056115710563
:1011B00009F439C1CE014D960E946807A090FE0542
:1011C000B090FF05E1E9AE16E4E0BE0640F42CE184
:1011D0002A9DC0012B9D900D1124029602C08FEF15
:1011E0009FEF0E94A8207C01FC01A192B1928F0187
:1011F0003F01812C912C8A149B0451F0C3010E9461
:101200001307FCE16F0E711C8FEF881A980AF3CF59
:1012100088E19CEFC89E3001C99E700CD89E700C6E
:10122000112458014801C12CD12C8FA598A9860DF5
:10123000971D181619069CF1CE0101960E944A0FBF
:10124000EFEFCE1ADE0ABE016F5F7F4FC4010E942E
:101250006608CE0145960E94AB158091FE059091DF
:10126000FF05892BE1F06091FA057091FB0561158E
:10127000710511F40E943E0FCE0101960E9468078D
:10128000BE016F5F7F4FCE014D960E946608CE0172
:1012900045960E94AB15FCE18F0E911CC6CF812CA8
:1012A000912C8C149D0451F0C5010E94A7078FEF6B
:1012B000881A980AECE1AE0EB11CF3CFC090FE057F
:1012C000D090FF0501151105C9F0F70180819181CA
:1012D0002CE1289F5001299FB00C1124A00EB11EB3
:1012E000A016B10641F0FCE1AF1AB108C501449661
:1012F0000E94AB15F5CFC7010E943D2181E9C816B8
:1013000084E0D80640F42CE12C9DC0012D9D900D69
:101310001124029602C08FEF9FEF0E94A8205C016B
:10132000FC01C192D1928F014F01E12CF12CEC1400
:10133000FD0451F0C4010E941307FCE18F0E911CC3
:101340008FEFE81AF80AF3CF78013801812C912C3D
:101350008C149D04ACF4CE0101960E944A0FBE018C
:101360006F5F7F4FC3010E946608CE0145960E94C1
:10137000AB15EFEF8E1A9E0AFCE16F0E711CE8CFE1
:10138000812C912C88E1682E8CEF782E8C149D0492
:1013900034F52091440330914503269DC001279DDB
:1013A000900D369D900D1124F70122893389820F0B
:1013B000931F938B828BB701CE0101960E94680721
:1013C000CE0101960E94300DCE0145960E94AB15CC
:1013D000FFEF8F1A9F0A8CE1E80EF11CD7CF0115A1
:1013E0001105C9F0F501808191812CE1289F7001E0
:1013F000299FF00C1124E00EF11EE016F10641F0D9
:10140000FCE1EF1AF108C70144960E94AB15F5CF35
:10141000C5010E943D211092450310924403CE0164
:10142000C1960E94AB15E8960FB6F894DEBF0FBECA
:10143000CDBFDF91CF911F910F91FF90EF90DF9083
:10144000CF90BF90AF909F908F907F906F900895B6
:10145000FC01538D448D252F30E0842F90E0821BBA
:10146000930B541710F0CF96089501970895FC013F
:10147000918D828D981761F0828DDF01A80FB11DCB
:101480005D968C91928D9F5F9F73928F90E00895EF
:101490008FEF9FEF0895FC01918D828D981731F0A9
:1014A000828DE80FF11D858D90E008958FEF9FEFFD
:1014B0000895FC01918D228D892F90E0805C9F4FD3
:1014C000821B91098F73992708958FE993E00E94F9
:1014D000590A21E0892B09F420E0822F0895FC01AC
:1014E000848DDF01A80FB11DA35ABF4F2C91848DAD
:1014F00090E001968F739927848FA689B7892C93E2
:10150000A089B1898C9180648C93938D848D98137C
:1015100006C00288F389E02D80818F7D8083089545
:10152000EF92FF920F931F93CF93DF93EC0181E033
:10153000888F9B8D8C8D981305C0E889F9898081EF
:1015400085FD24C0F62E0B8D10E00F5F1F4F0F732B
:101550001127E02E8C8DE8120CC00FB607FCFACFD5
:10156000E889F989808185FFF5CFCE010E946F0A55
:10157000F1CF8B8DFE01E80FF11DE35AFF4FF08292
:101580000B8FEA89FB898081806207C0EE89FF8921
:101590006083E889F98980818064808381E090E0BC
:1015A000DF91CF911F910F91FF90EF900895CF930E
:1015B000DF93EC01888D8823C9F0EA89FB8980815B
:1015C00085FD05C0A889B9898C9186FD0FC00FB62D
:1015D00007FCF5CF808185FFF2CFA889B9898C916E
:1015E00085FFEDCFCE010E946F0AE7CFDF91CF914B
:1015F000089580E090E0892B29F00E94650A81110E
:101600000C94000008950E9423281F920F920FB699
:101610000F9211242F933F934F935F936F937F9378
:101620008F939F93AF93BF93EF93FF938FE993E0D3
:101630000E946F0AFF91EF91BF91AF919F918F919F
:101640007F916F915F914F913F912F910F900FBEBE
:101650000F901F9018951F920F920FB60F921124A2
:101660002F938F939F93EF93FF93E091AF03F091AC
:10167000B0038081E091B503F091B60382FD12C002
:1016800090818091B8038F5F8F732091B903821787
:1016900051F0E091B803F0E0E156FC4F958F809354
:1016A000B80301C08081FF91EF919F918F912F919D
:1016B0000F900FBE0F901F9018952F923F924F9250
:1016C0005F926F927F928F929F92AF92BF92CF92D2
:1016D000DF92EF92FF920F931F93CF93DF93CDB7DB
:1016E000DEB7E8970FB6F894DEBF0FBECDBF4C0152
:1016F0002B011A0159016801C20ED31ED7FE03C087
:101700008FEFC81AD80AD594C794720180E090E090
:1017100096012A193B09821793072CF4F701E48CF0
:10172000F58C0196F8CF6090000670900106B40128
:10173000CE014D960E946807B701CE0101960E9426
:101740006807BE01635E7F4FCE010196F3010995E4
:10175000782ECE0145960E94AB15CE01C1960E940F
:10176000AB1571100DC0CA14DB04D9F1C601019785
:101770008A159B05B1F186019501A701B2012DC023
:10178000A0900006B0900106F701648D758DCE0122
:101790004D960E946807B401CE0101960E94680729
:1017A000BE01635E7F4FCE010196F5010995B82E0B
:1017B000CE0145960E94AB15CE01C1960E94AB1595
:1017C000B11011C00C151D0571F0C80101978C15E1
:1017D0009D0549F09601A101B701C4010E945D0B6E
:1017E00003C0C20101C0C701E8960FB6F894DEBF7E
:1017F0000FBECDBFDF91CF911F910F91FF90EF9062
:10180000DF90CF90BF90AF909F908F907F906F9020
:101810005F904F903F902F900895CF93DF939CB5AA
:101820009F7D9CBD9CB5937F9CBD9CB59C7F9CBDC2
:101830009DB591609DBDC2E0D6E0682F8A810E946F
:10184000BD048C899D89DF91CF910C94450581E081
:101850000C940D0C80E00C940D0CCF93DF931F9231
:10186000CDB7DEB70E942A0C81EE0E94050689835F
:101870000E94270C89810F90DF91CF910895CF931B
:10188000DF931F92CDB7DEB789830E942A0C89812E
:101890008F710E9405068FEF0E94050689830E94C2
:1018A000270C89810F90DF91CF9108951F93CF93DB
:1018B000DF9300D0CDB7DEB76A8389830E942A0CFC
:1018C00089818F7180620E940506182F6A81862F98
:1018D0000E9405060E94270C812F0F900F90DF9128
:1018E000CF911F910895EF92FF920F931F93CF9383
:1018F000DF9300D01F92CDB7DEB7162F4A837B83CC
:1019000089830E942A0C89818F7180620E9405065A
:10191000082FE12E7B81F72E4A81140F1E1531F01E
:10192000F70181917F010E940506F8CF0E94270CE4
:10193000802F0F900F900F90DF91CF911F910F91FB
:10194000FF90EF9008952091020630910306409198
:101950000406509105062417350721F0682F822FC1
:101960000C94BD04089580E00E943F0C81FD0BC0E3
:10197000682F626080E00E94560C65E070E080E0B5
:1019800090E00C94750508950E94B30C80E00E94CD
:101990003F0C682F616080E00E94560C60E787E092
:1019A0000E94560C81E00E94A30C80910B068823B4
:1019B00041F0409110066BE076E08AE00E94730CE3
:1019C00012C082E00E943F0CE9E1F2E0E49121E0E4
:1019D00030E001C0220FEA95EAF72095622F6823D4
:1019E00082E00E94560C8DE10E943F0C81FD0C9418
:1019F0002D0C08950F931F93CF938C0186E00E94C6
:101A00003F0CC82FC77D0230110531F4C0628BE94D
:101A100090E0A0E0B0E00DC00130110529F085E5AF
:101A200090E0A0E0B0E005C0C86081E490E0A0E0F4
:101A3000B0E08093120690931306A0931406B0931F
:101A400015066C2F86E00E94560C86E00E943F0C23
:101A500091E08C1390E0892FCF911F910F91089501
:101A6000EF92FF920F931F93CF93DF93CDB7DEB723
:101A7000E8970FB6F894DEBF0FBECDBF8C018EE1A4
:101A800090E00E94A8207C010E941307B801C701C2
:101A90000E946608F701158E148E6091FA05709108
:101AA000FB056115710529F4F092FB05E092FA053A
:101AB0007AC00091000610910106CE014D960E9459
:101AC0006807B701CE0101960E946807BE01635EF8
:101AD0007F4FCE010196F8010995182FCE0145964A
:101AE0000E94AB15CE01C1960E94AB15112361F087
:101AF0008091FA059091FB05F701958F848FF09204
:101B0000FB05E092FA0553C0009100061091010612
:101B1000B701CE014D960E9468076091FC05709157
:101B2000FD05CE0101960E946807BE01635E7F4FEE
:101B3000CE010196F8010995182FCE0145960E9415
:101B4000AB15CE01C1960E94AB154091FC0550919A
:101B5000FD05112311F0CA0113C00091FE0510917B
:101B6000FF058091FA059091FB05015011090230A3
:101B7000110530F020E030E0BC01C7010E945D0B90
:101B8000009709F4B5CFFC01248D358DF701358F11
:101B9000248FFC01F58EE48E2091FC053091FD052B
:101BA0002817390721F4F092FD05E092FC05809199
:101BB000FE059091FF0501969093FF058093FE0529
:101BC000E8960FB6F894DEBF0FBECDBFDF91CF9180
:101BD0001F910F91FF90EF9008958F929F92AF9277
:101BE000BF920F931F93CF93DF93CDB7DEB7A1972B
:101BF0000FB6F894DEBF0FBECDBF19A2423008F475
:101C00004AE08E010F5D1F4F842E912CA12CB12C28
:101C1000A50194010E94CB25E62FB901CA0101500C
:101C20001109EA3014F4E05D01C0E95CD801EC93DD
:101C3000232B242B252B61F7B8018FE993E00E9419
:101C4000FA15A1960FB6F894DEBF0FBECDBFDF9197
:101C5000CF911F910F91BF90AF909F908F9008955B
:101C6000E0919F03F091A0030190F081E02D682F97
:101C70008FE993E00994CF92DF92EF92FF92CF9396
:101C8000DF936C01990FEE08FF08F7FE12C08DE29A
:101C90000E94300EEC0166277727CB016C197D0975
:101CA0008E099F094AE00E94ED0D7C01EC0EFD1E9D
:101CB00006C04AE0C701B6010E94ED0D7C0161E952
:101CC00071E08FE993E00E94FA158E0D9F1DDF9160
:101CD000CF91FF90EF90DF90CF900895BC018FE9F6
:101CE00093E00C94FA154F925F926F927F928F92CD
:101CF0009F92AF92BF92CF92DF92EF92FF926B01D1
:101D00007C019B01AC010E941627882319F06DE627
:101D100072E01AC046015701E894B7F82FEF3FEF81
:101D20004FE75FE7C501B4010E941627811112C079
:101D30002FEF3FEF4FE75FE7C501B4010E943B245F
:101D4000181644F461E772E08FE993E00E94FA15F7
:101D50007C017FC02FEF3FEF4FE75FE4C701B60183
:101D60000E94112718161CF465E772E0EDCF2FEFE3
:101D70003FEF4FE75FECC701B6010E943B2487FDB0
:101D8000F3CF20E030E0A901C701B6010E943B2457
:101D900087FF09C08DE20E94300E5C01F7FAF094D3
:101DA000F7F8F09402C0A12CB12C2AE037ED43EAF9
:101DB0005BE3C701B6010E94FD252B013C010E9497
:101DC000E2266B017C010E9440249B01AC01C3010F
:101DD000B2010E94FC252B013C014AE0C701B6017B
:101DE0000E94ED0D7C01EA0CFB1C8EE20E94300E7D
:101DF000E80EF91E20E030E040E251E4C301B201F8
:101E00000E94A1242B013C010E94E2264B01A12C3F
:101E1000B12C4AE0C501B4010E94ED0DE80EF91E97
:101E2000C501B4010E9440249B01AC01C301B20171
:101E30000E94FC2520E030E040E251E40E94A12411
:101E40000E94E22680E090E04AE00E94ED0DE80E5C
:101E5000F91E61E971E08FE993E00E94FA158E0D99
:101E60009F1DFF90EF90DF90CF90BF90AF909F901D
:101E70008F907F906F905F904F9008958091F805BC
:101E80009091F905009721F069E772E00E940F1622
:101E90000E940617EF92FF920F931F93CF93DF9349
:101EA0008C016091FA057091FB056115710561F473
:101EB0008091F8059091F905009721F06CEA72E0A5
:101EC0000E940F160E9406170E946807C091FA052B
:101ED000D091FB05EC8CFD8C209739F0CE01449617
:101EE0000E94AB15CE010E943D21F092FB05E092CD
:101EF000FA052091FE053091FF05215031093093FC
:101F0000FF052093FE05C801DF91CF911F910F912E
:101F1000FF90EF900895FC0180819181009711F06E
:101F20000C948C1E60E070E0CB010895EF92FF925C
:101F30000F931F93CF93DF93FC01248135816115AB
:101F4000710511F480E019C041155105A9F07B011C
:101F5000EC018A01020F131FB8010E947215882339
:101F600089F3288139818C819D81B701820F931F6C
:101F70000E943A281D830C8381E0DF91CF911F914D
:101F80000F91FF90EF9008950F931F93CF93DF93DE
:101F900000D0CDB7DEB78C018CE289831A8241E094
:101FA00050E0BE016F5F7F4FC8010E94960F811104
:101FB00003C0C8010E949915C8010F900F90DF91CE
:101FC000CF911F910F910895CF93DF93EC01FB0107
:101FD00044815581608171810E94960F811103C0F7
:101FE000CE010E949915CE01DF91CF910895EF9215
:101FF000FF920F931F93CF93DF93EC017B018A0134
:10200000BA010E947215811104C0CE010E94991577
:1020100007C01D830C83B701888199810E943A28EB
:10202000CE01DF91CF911F910F91FF90EF90089516
:10203000CF93DF93EC016115710559F0FB0101901D
:102040000020E9F73197AF01461B570B0E94F70FAD
:1020500002C00E949915CE01DF91CF910895CF93D0
:10206000DF93EC01FB018617970761F060817181B6
:102070006115710529F0448155810E94F70F02C056
:102080000E949915CE01DF91CF910895CF92DF92F2
:10209000EF92FF920F931F93CF93DF93CDB7DEB7ED
:1020A000C856D1090FB6F894DEBF0FBECDBF8C0164
:1020B0007B01CE014D960E9413070630110579F081
:1020C0000830110509F489C00530110509F0B5C4BF
:1020D0006EEF72E08FE993E00E940F167BC06EED09
:1020E00072E08FE993E00E940F16B701CE01C99606
:1020F0000E94DC15BE01675C7F4FCE0101960E94F5
:102100002707CE01C9960E94AB15E984FA840B8596
:102110001C854AE0B701CE018D599F4F0E94B01532
:102120006DEE72E0CE01835A9F4F0E94E5154AE0A2
:10213000B801CE01895A9F4F0E94B01564EF72E03A
:10214000CE01C9960E94E515BE01675C7F4FCE01A6
:102150008F5A9F4F0E94DC15BE01695A7F4FCE01F6
:102160008F5A9F4F0E94E40FBE01635A7F4F0E9417
:10217000E40FBE016D597F4F0E94E40FFC014481C2
:102180005581608171818FE993E00E944715CE01EE
:102190008F5A9F4F0E94AB15CE01C9960E94AB1576
:1021A000CE01895A9F4F0E94AB15CE01835A9F4F93
:1021B0000E94AB15CE018D599F4F0E94AB15000FA9
:1021C000111FF801E05CFB4FF182E082CE01019625
:1021D0000E94260202E010E044C480E391E09AAF3E
:1021E00089AF63E971E0CE01CB960E94E5158EE3DD
:1021F00091E09AAF89AF60E173E08FE993E00E94CC
:102200000F1662E273E08FE993E00E940F1681E6F9
:1022100094E00E94C701181619060CF011C481E65B
:1022200094E00E94DF01182F80911D0590911E05FA
:10223000A0911F05B09120050196A11DB11D8093AD
:102240001D0590931E05A0931F05B0932005143221
:1022500009F4ADC2E0911705153234F41A3071F06B
:102260001D3009F0B2C20AC01A3241F01C3209F026
:10227000ACC280910405812780930405EF3008F0FB
:1022800076C1F0E0E952FB4F17A68091050588233F
:1022900009F46FC1209106053FEB320F822F022E09
:1022A000000C990B363010F4C79707C02156263022
:1022B00018F48755910901C0C097282F2295207FD7
:1022C000309107054FEB430F832F032E000C990B22
:1022D000463010F4C79707C03156363018F487558A
:1022E000910901C0C097820F9091040589132CC1F8
:1022F0008091290590912A05A0912B05B0912C057C
:102300000196A11DB11D8093290590932A05A093E4
:102310002B05B0932C0580911805882399F08091A6
:10232000210590912205A0912305B09124050196E5
:10233000A11DB11D8093210590932205A093230533
:10234000B093240500911505002309F46BC00130FA
:1023500009F0D2C08091A8049091A904A091AA0488
:10236000B091AB048093A4049093A504A093A60419
:10237000B093A7040E94AF056093AC047093AD04C2
:102380008093AE049093AF040093A3040093A2043F
:102390008091B6049091B704A091B804B091B904AB
:1023A0008093B2049093B304A093B404B093B504A3
:1023B0000E94AF056093BA047093BB048093BC0481
:1023C0009093BD040093B1040093B004809118056C
:1023D000882309F491C087E0E0E9F4E0A2E8B4E0E2
:1023E00001900D928A95E1F787E0E7E9F4E0A9E82A
:1023F000B4E001900D928A95E1F70E94AF056093D9
:102400009E0470939F048093A0049093A104009372
:102410008104009380048EEB94E00E94BA068CEC59
:1024200094E068C08091B6049091B704A091B8047C
:10243000B091B9048093B2049093B304A093B40410
:10244000B093B5040E94AF056093BA047093BB04C7
:102450008093BC049093BD0401E00093B104009309
:10246000B00480911805882321F187E0E0E9F4E0C9
:10247000A2E8B4E001900D928A95E1F787E0E7E9E0
:10248000F4E0A9E8B4E001900D928A95E1F70E948A
:10249000AF0560939E0470939F048093A004909373
:1024A000A10400938104009380048AED94E00E94CB
:1024B000BA068091F2049091F304A091F404B091D3
:1024C000F5048093EE049093EF04A093F004B0938E
:1024D000F1040E94AF056093EA047093EB048093CB
:1024E000EC049093ED0481E08093E9048093E80488
:1024F00086EF94E00E94BA06E0901B05F0901C0560
:1025000001E0E114F10409F441C1E0911B05F091EF
:102510001C0566A177A1F70186A197A10E94312829
:10252000892B09F033C1B701C70140960E943A28B0
:102530000E94AF05F70160A371A382A393A305A333
:1025400004A3E2A4F3A4DDCF809125059091260594
:10255000A0912705B09128050196A11DB11D80937A
:10256000250590932605A0932705B093280580E0C4
:102570000EC190911605911145C06CE273E086E0A2
:1025800095E00E943128892B41F062E373E086E0F8
:1025900095E00E943128892B11F481E014C068E392
:1025A00073E086E095E00E943128892B41F06EE3CC
:1025B00073E086E095E00E943128892B19F410928F
:1025C000150503C082E0809315058091190590914F
:1025D0001A0590931C0580931B05E0901B05F09055
:1025E0001C05E114F10419F2F701C6A0D7A066E0BA
:1025F00075E0C6010E94312897FF25C2F70182A528
:1026000093A5E7CFE0911505E23009F491C08091E0
:102610000605882309F48CC020E2E29FF001112412
:10262000E92B3197E932F10508F082C0EC5CFF4FED
:102630000C943F2786E095E00E94AB166093B604A9
:102640007093B7048093B8049093B90471C091E07B
:10265000813409F043C043C060E974E009C091E0EF
:10266000833509F090E09093960462C067E974E0C6
:1026700086E095E00E9423165BC091E0873509F063
:1026800090E090939D0454C086E095E00E94AB16C4
:102690006093C8047093C9048093CA049093CB04D8
:1026A00047C086E095E00E94AB166093D604709315
:1026B000D7048093D8049093D9043AC086E095E07B
:1026C0000E948C1E6093A8047093A9048093AA04AE
:1026D0009093AB042DC091E081330CF490E0909383
:1026E000180526C086E095E00E948C1E6093F204D7
:1026F0007093F3048093F4049093F50419C086E07A
:1027000095E00E94AB1660930005709301058093DD
:102710000205909303050CC086E095E00E94AB167D
:102720006093E4047093E5048093E6049093E704D7
:10273000E0901B05F0901C05E114F10409F417CF9B
:10274000E0911B05F0911C0566A177A1F70186A118
:1027500097A10E943128892B09F009CFF70120A504
:1027600031A58091160590E0821793070CF4FFCEF7
:102770002817390739F440E150E066E075E0C701F9
:102780000E944128F701E2A4F3A4D6CF81E0909102
:1027900016059F5F909316051092170591E01A3267
:1027A00009F090E090930505811123C049C1109272
:1027B0001705109216051092040582E08093150506
:1027C00010920505109218053BC1EE3040F481E0EF
:1027D0008E0F80931705F0E0E952FB4F17A7809109
:1027E000050581112DC1809104051827109304055A
:1027F00027C110928104609182047091830480E06B
:1028000090E00E9440246B017C01609184047091EF
:10281000850480918604909187040E94402428E2D8
:102820003BE64EE65EE40E9469269B01AC01C701CF
:10283000B6010E94FD25209188042111905825960B
:102840006CAF7DAF8EAF9FAF25970E94DB26CB018B
:102850000E943B0E109281046091890470918A0459
:1028600080E090E00E9440246B017C0160918B0429
:1028700070918C0480918D0490918E040E9440246C
:1028800028E23BE64EE65EE40E9469269B01AC012D
:10289000C701B6010E94FD2520918F046B017C01C8
:1028A000222321F0F7FAF094F7F8F0942996CCAEB1
:1028B000DDAEEEAEFFAE2997211190580E94DB26C7
:1028C000CB010E943B0E1092B1048091B204909112
:1028D000B304A091B404B091B5042D968CAF9DAF14
:1028E000AEAFBFAF2D970E943B0E1092A304809114
:1028F000A4049091A504A091A604B091A7046196A8
:102900008CAF9DAFAEAFBFAF61970E943B0EBE01D3
:10291000655C7F4F8FE295E00E942F1025968CAD6D
:102920009DADAEADBFAD259780933505909336052F
:10293000A0933705B093380529968CAD9DADAEAD0B
:10294000BFAD29978093390590933A05A0933B0535
:10295000B0933C052D968CAD9DADAEADBFAD2D9722
:1029600080933D0590933E05A0933F05B0934005AD
:1029700061968CAD9DADAEADBFAD619780934105C5
:1029800090934205A0934305B093440585E090E001
:102990009CA78BA72091460530914705A9014F5F61
:1029A0005F4F50934705409346053A8329839A87A2
:1029B00089871C861B8663E971E0CE0145960E94DB
:1029C000E515BE01675C7F4FCE018F5A9F4F0E9475
:1029D0000D04BE016F5A7F4FCE0101960E94100771
:1029E000CE018F5A9F4F0E94AB1580915D0490914C
:1029F0005E049C838B839E838D8388E090E09E871A
:102A00008D8718861F82BE016F5F7F4FCE014D9666
:102A10000E946608CE0145960E94AB15CE014D96E8
:102A20000E94A707CE014D960E94D10602E010E059
:102A3000CE01C9960E942E0214C000E010E011C021
:102A400000E010E0F5CF66E075E0C6010E94312895
:102A5000181619060CF08BCD10921C0510921B0550
:102A600086CDCE01C1960E94AB15C801C859DF4F73
:102A70000FB6F894DEBF0FBECDBFDF91CF911F918F
:102A80000F91FF90EF90DF90CF9008950895CF922F
:102A9000DF92EF92FF920F931F93CF93DF936C011E
:102AA0007A018B01C0E0D0E0CE15DF0589F0D801B6
:102AB0006D918D01D601ED91FC910190F081E02D99
:102AC000C6010995892B11F47E0102C02196ECCF35
:102AD000C701DF91CF911F910F91FF90EF90DF9091
:102AE000CF9008950F931F93CF93DF93EC018881CC
:102AF0009981009729F02A813B812617370788F4AE
:102B00008B016F5F7F4F0E945927009761F0998377
:102B100088831B830A832C813D81232B11F4FC01C4
:102B2000108281E001C080E0DF91CF911F910F9171
:102B30000895CF93DF93EC0188819981009711F07C
:102B40000E943D21198218821D821C821B821A82DA
:102B5000DF91CF910895FC01808191810C943D21FA
:102B60000F931F93CF93DF93CDB7DEB762970FB666
:102B7000F894DEBF0FBECDBF8C01CB01F8011182EE
:102B80001082138212821582148250E0BE016F5FA0
:102B90007F4F0E94B31EBE016F5F7F4FC8010E942E
:102BA000181062960FB6F894DEBF0FBECDBFDF914E
:102BB000CF911F910F910895FC0111821082138211
:102BC0001282158214820C942F10FC011182108243
:102BD00013821282158214826115710551F0FB0176
:102BE00001900020E9F73197AF01461B570B0C9479
:102BF000F70F08956115710579F0FB010190002030
:102C0000E9F73197AF01461B570BDC01ED91FC91C1
:102C10000280F381E02D099480E090E008950F9305
:102C20001F93CF93DF93EC010E94FA158C0161E9A9
:102C300071E0CE010E94FA15800F911FDF91CF91B4
:102C40001F910F9108952F923F924F925F926F9232
:102C50007F928F929F92AF92BF92CF92DF92EF922C
:102C6000FF920F931F93CF93DF93D82FC92F8B0120
:102C70000E948C1E24E630E040E050E00E94CB250C
:102C800049015A019B01AC0160E876E988E990E0CE
:102C90000E941B276B017C01F80191828082ED2F3D
:102CA000FC2F2191822F022E000C990BC0970A97BE
:102CB000C0F32E3239F51F0180E8882E86E9982E60
:102CC00088E9A82EB12C9AE0492E512C612C712C48
:102CD000F101C1911F010C2E000CDD0BE097CA30F1
:102CE000D10580F4C501B401A30192010E94CB2556
:102CF00049015A01DE010E948C25C60ED71EE81E2E
:102D0000F91EE6CFA5E0B0E0A70196010E9481255B
:102D10006F5F7F4F8F4F9F4F23E030E040E050E0E8
:102D20000E94CB25F8012283338344835583168286
:102D3000DF91CF911F910F91FF90EF90DF90CF9097
:102D4000BF90AF909F908F907F906F905F904F90CB
:102D50003F902F900895FF920F931F93CF93DF938F
:102D6000EC01FF24F39488818D3211F0F12C01C025
:102D70002196CE010E948C1E9B01AC01A4E6B0E01E
:102D80000E948125FE014991242F042E000C330B53
:102D9000205331092A303105A8F34E3241F5218103
:102DA000022E000C330B205331092A303105F8F480
:102DB0004AE0429F8001439F100D1124012E000C18
:102DC000220B330B600F711F821F931F0281002E95
:102DD000000C110B005311090A30110540F4012EAB
:102DE000000C220B330B600F711F821F931FFF20FB
:102DF00039F090958095709561957F4F8F4F9F4FDB
:102E0000DF91CF911F910F91FF90089561E08DE0C8
:102E10000E94090561E08DE00E94BD046AEF70E048
:102E200080E090E00E94750560E08DE00E94BD04A6
:102E30006AEF70E080E090E00E947505EBCFCF93E1
:102E4000DF93CDB7DEB7CC54D1090FB6F894DEBF0F
:102E50000FBECDBF789484B5826084BD84B5816097
:102E600084BD85B5826085BD85B5816085BD809155
:102E70006E00816080936E001092810080918100CD
:102E800082608093810080918100816080938100C5
:102E9000809180008160809380008091B100846087
:102EA0008093B1008091B00081608093B0008091E8
:102EB0007A00846080937A0080917A0082608093A7
:102EC0007A0080917A00816080937A0080917A0004
:102ED000806880937A001092C100E091AF03F09176
:102EE000B00382E08083E091AB03F091AC031082E9
:102EF000E091AD03F091AE0380E180831092B703BF
:102F0000E091B303F091B40386E08083E091B103D4
:102F1000F091B203808180618083E091B103F091F0
:102F2000B203808188608083E091B103F091B203A5
:102F3000808180688083E091B103F091B203808149
:102F40008F7D808380910206909103062091040674
:102F5000309105068217930719F061E00E94090578
:102F60008091040690910506209102063091030697
:102F70002817390719F061E00E9409051FB7F89476
:102F800080918F03811127C0EDE3F2E08491E1E5A8
:102F9000F2E09491E82FF0E0EE0FFF1FE15FFD4FAC
:102FA000A591B491EC91E92321F461E08AE00E94BB
:102FB000BD0461E08AE00E9409058CB580618CBD8A
:102FC0008CB580648CBD61E08DE00E94090561E0F4
:102FD0008BE00E94090580918F038F5F80938F03A0
:102FE0001FBF80E00E94A30C81E00E940D0C65E0F1
:102FF00070E080E090E00E9475056CE080E00E9447
:10300000560C6FE584E00E94560C82E090E00E942E
:10301000FA0C882319F081E08093080686E00E946C
:103020003F0C80E090E00E94FA0C0E942A0C80E5A0
:103030000E94050683E70E9405060E94270C60E0B7
:103040008DE10E94560C60E08CE10E94560C1092BB
:103050000A0660E787E00E94560C6CE485E00E9457
:10306000560C0E942A0C82EE0E9405060E94270C34
:103070000E942D0C0E94B30C80E00E943F0C682F30
:103080006E7F80E00E94560C60915F046E3708F0FE
:103090006DE785E00E94560C86E00E943F0C682F89
:1030A000676086E00E94560C82E090E00E94FA0C75
:1030B0008091510426968FAF269727961FAE2797AB
:1030C00028961FAE289729961FAE29972A961FAEDD
:1030D0002A972B961FAE2B972C961FAE2C972D96CA
:1030E0001FAE2D97EAE0F2E0849140911006BE01F8
:1030F0006B5B7F4F0E94730CE4E0F2E0849160917F
:1031000009060E94560C82E00E943F0CEAE1F2E0C0
:10311000E49161E070E001C0660FEA95EAF7682B80
:1031200082E00E94560C4091100667E574E08AE048
:103130000E94730C4091100667E574E080E10E94E4
:10314000730C6091090681E10E94560C0E94C40C28
:1031500081E0809350048091F4059091F5050A97E1
:103160000CF04BC0E2E7F5E000E010E081919191B6
:10317000892BE9F5F801EE0FFF1FEE0FFF1FEA574D
:10318000FA4F88EE93E0A0E0B0E080839183A283C1
:10319000B383F801EE0FFF1FEE58FA4F86EA98E06E
:1031A00091838083F801EE0FFF1FE255FA4F1182E1
:1031B0001082F801EA52FA4F81E080830E94AF0545
:1031C000F801EE0FFF1FEE0FFF1FE65BFA4F608363
:1031D0007183828393838091F4059091F505019624
:1031E0009093F5058093F405902F812F08C00F5F11
:1031F0001F4F0A30110509F0B9CF9FEF8FEF909361
:10320000F6058093F70570E3E72E71E0F72EE0E115
:10321000CE2EE1E0DE2EFAAEE9AE63E971E0CE013A
:10322000CB960E94E515DAAEC9AE83E090E0259614
:103230009FAF8EAF25978CE697E023969FAF8EAF1A
:103240002397BE01675C7F4FCE0101960E94CB029F
:103250008BAD9CAD0097B9F069817A8161157105DC
:1032600081F04DAD5EAD2D813E814217530748F090
:103270000E943A288D819E8121969FAF8EAF219723
:1032800014C00E943D2189819A819CAF8BAF8B81B4
:103290009C819EAF8DAF8D819E8121969FAF8EAF19
:1032A00021971A8219821C821B821E821D82CE01E6
:1032B00001960E94AB150E94500500919B0310914E
:1032C0009C0320919D0330919E03DC01CB01801B68
:1032D000910BA20BB30B8035934CA105B10568F09F
:1032E0000E94500560939B0370939C0380939D0301
:1032F00090939E0381E080939A0380919903883094
:1033000038F010929A031092990381E08093980309
:1033100080919A038823F1F180910101882381F043
:1033200081E080939803109201010E945005609300
:1033300094037093950380939603909397032AC008
:103340000E945005A0919903009194031091950358
:1033500020919603309197034B015C01801A910AEA
:10336000A20AB30AEA2FF0E0EE0FFF1FE05CFB4F6A
:1033700040815181052E000C660B770B8416950653
:10338000A606B70638F081E08A0F8093990381E0A2
:103390008093010180919803882399F18091000125
:1033A000882389F061E08AE00E94BD041092000148
:1033B0000E94500560939003709391038093920351
:1033C000909393031EC00E945005009190031091AA
:1033D00091032091920330919303DC01CB01801B78
:1033E000910BA20BB30B883E9340A105B10548F0A9
:1033F00060E08AE00E94BD041092980381E080930F
:103400000001BE01675C7F4FCE0101960E94CB0296
:10341000BE016F5F7F4F86E090E00E944610CE01B4
:1034200001960E94AB1587E10E943F0C80FF3EC0D1
:1034300030C00E94270C60E787E00E94560CCE0146
:103440004D960E94D1062BA13CA180915D049091E4
:103450005E042817390709F065C063E372E08FE95D
:1034600093E00E940F16BE016F5C7F4FCE01019664
:103470000E94DC15BE016F5F7F4F89A59AA50E944F
:103480004610CE0101960E94AB15CE01C1960E9456
:10349000AB1564E670E080E090E00E947505CE0117
:1034A000C9960E9426020E94F90AB5CE62E572E032
:1034B0008FE993E00E940F16CE014D960E941307EC
:1034C00087E10E943F0C80FF07C06BE572E08FE947
:1034D00093E00E940F16D9CF109109061C3108F411
:1034E0008AC00CE180910A06811102C0101B01C044
:1034F00010E00E942A0C81E60E940506CE014D963E
:103500005C01015038F08FEF0E940506F5018193B0
:103510005F01F7CF112309F48CCF8FEF0E940506CE
:103520001150F8CF2DA13EA18FA198A58217930726
:103530000CF0ABCF63E472E08FE993E00E940F16CA
:103540008FA198A5019698A78FA380915D04909173
:103550005E049AA389A38D8D9E8D330F220B322F8B
:103560002827392705EE13E0209FC001219F900DE9
:10357000309F900D1124E8EEF3E0BF010E942B274D
:10358000330F220B322F28273927209FC001219F7C
:10359000900D309F900D1124BF010E942B27330FF7
:1035A000220B322F82279327BF010E942B279C01D9
:1035B000220F331FE0914805F0914905E20FF31FF8
:1035C00020813181121613068CF097FD0FC0BE01C9
:1035D000635E7F4FCE0101960E946807CE0101967F
:1035E0000E94300DCE0145960E94AB15CE014D963E
:1035F0000E94A7074ACF012F75CF0F931F93CF9338
:10360000DF938091480590914905009711F00E9441
:103610003D218DE295E00E942E028CE491E0909392
:1036200062048093610481E694E00E94A406009104
:10363000FA051091FB05012BA1F0C091FA05D0917C
:10364000FB050C8D1D8D209739F0CE0144960E940C
:10365000AB15CE010E943D211093FB050093FA05A6
:10366000EACFDF91CF911F910F910895CF92DF9212
:10367000EF92FF92CF93DF931092A2031092A103D7
:1036800098EEC92E93E0D92EE12CF12CC092A30321
:10369000D092A403E092A503F092A6038EE191E0FC
:1036A0009093A00380939F0385EC90E09093AC03EC
:1036B0008093AB0384EC90E09093AE038093AD03D2
:1036C00080EC90E09093B0038093AF0381EC90E0A6
:1036D0009093B2038093B10382EC90E09093B40393
:1036E0008093B30386EC90E09093B6038093B50388
:1036F0001092B8031092B9031092BA031092BB0350
:1037000087E090E0909303068093020688E090E0C3
:1037100090930506809304061092080680E2809339
:10372000090610920A0685E08093100685E090E075
:10373000A0E0B0E08093160690931706A0931806B9
:10374000B093190610920B061092FF051092FE0519
:103750001092FB051092FA051092FD051092FC05DF
:103760001092F9051092F80584E092E0909301061A
:103770008093000686E0E1E5F4E0DF01282F1D924A
:103780002A95E9F7E7E5F4E0DF011D928A95E9F76C
:10379000C1E0C09357040E94781EBC01990F880BAA
:1037A000990B2CED3FEF40E050E00E9462257093B2
:1037B0005E0460935D0483E790E0909360048093DF
:1037C0005F041092640410926304C0926504D09266
:1037D0006604E0926704F09268048CE491E09093B0
:1037E000620480936104109278041092770410921E
:1037F0007A041092790410927C0410927B04109247
:103800007E0410927D0480917F048E7F8D7F809353
:103810007F0486958170682F6C2783E00E94BD0429
:1038200061E083E00E940905EAE4F2E0E491E093BC
:103830007104E6E3F2E0E491F0E0EE0FFF1FE15ED9
:10384000FD4F85919491909373048093720460E08E
:1038500084E00E94090580917F0481FD04C061E03D
:1038600084E00E94BD0484E080936D04EBE4F2E008
:10387000E491E0936E04E7E3F2E0E491F0E0EE0F10
:10388000FF1FE75DFD4F85919491909370048093A5
:103890006F0410928004109281041092830410929D
:1038A000820410928404109285041092860410926F
:1038B00087041092880410928A041092890410924E
:1038C0008B0410928C0410928D0410928E0410922E
:1038D0008F0410929104109290041092920410920E
:1038E00093041092940410929504109296041092EE
:1038F0009804109297041092990410929A041092CE
:103900009B0410929C0410929D041092A2041092A9
:10391000A3041092A4041092A5041092A60410927D
:10392000A7041092B0041092B1041092B204109245
:10393000B3041092B4041092B5041092BE04109215
:10394000BF041092C4041092C5041092C6041092D1
:10395000C7041092CC041092CD041092D20410929D
:10396000D3041092D4041092D5041092DA04109269
:10397000DB041092E0041092E1041092E204109231
:10398000E3041092E8041092E9041092EE041092FD
:10399000EF041092F0041092F1041092F6041092C9
:1039A000F7041092FC041092FD041092FE04109291
:1039B000FF04109204051092050582E0809315051E
:1039C00010921605109217051092180510921A05FC
:1039D0001092190510921C0510921B0510921D05DE
:1039E00010921E0510921F051092200510922105BD
:1039F000109222051092230510922405109225059D
:103A0000109226051092270510922805109229057C
:103A100010922A0510922B0510922C051092060583
:103A200080E391E090932E0580932D0563E971E08A
:103A30008FE295E00E94E5158EE391E090932E05CC
:103A400080932D0510927C0410927B0410927A04CE
:103A50001092790410927804109277048FE190E02C
:103A600090937E0480937D0490916D04963108F0CC
:103A700057C021E030E030937804209377042DE1A3
:103A800030E030937A04209379042DE030E03093D5
:103A90007C0420937B0420916800983050F031E042
:103AA0009E3008F430E081E001C0880F3A95EAF7D3
:103AB00001C084E0822B80936800983038F09E30FB
:103AC00040F0963148F020E030E008C02DE630E0CC
:103AD00005C02BE630E002C02CE630E030937504E0
:103AE00020937404983030F481E001C0880F9A95D7
:103AF000EAF70EC0292F30E09E3018F42850310923
:103B000002C02E50310981E001C0880F2A95EAF7E2
:103B10008093760480917D0490917E040197F1F763
:103B200080917B0490917C04892B21F180913E044B
:103B300090913F04B4E081369B07E1F0009711F0CB
:103B40000E94A40680917F048E7F80937F04109250
:103B50003D0410923C0481E694E090933F048093EE
:103B60003E04E0917404F091750490818091760494
:103B7000892B8083E0E4F4E08CED95E081939193D0
:103B800024E0E035F207D1F788EE93E0909341040A
:103B90008093400461E08AE00E94090560E08AE0C9
:103BA0000E94BD0410924705109246050E94AF0581
:103BB000C6EDD5E0E2E7F5E04AE455E0199211924E
:103BC0001192DA016D937D938D939D93AD019F01C9
:103BD000225B3F4FD9011D921C92B5E0E638FB07EE
:103BE00069F71092F5051092F40584E090E0909347
:103BF0005E0480935D0480ED97E00E94A82090937E
:103C000049058093480510925004DF91CF91FF90B1
:103C1000EF90DF90CF900895EF920F931F93CF9383
:103C2000DF93E80147FD02C034E001C034E1E42F36
:103C3000440FFF0BF7FF03C0F195E195F109E32E67
:103C4000022F2E2FAE010E941A1FCE01DF91CF91BD
:103C50001F910F91EF9008958F929F92AF92BF9214
:103C6000CF92DF92EF92FF92CF93DF93EC016881C6
:103C700079818A819B81611571058105910521F406
:103C800064E279ED8BE597E02DE133EF41E050E020
:103C90000E94622549015A019B01AC01A7EAB1E4E7
:103CA0000E9481256B017C01ACEEB4EFA50194016B
:103CB0000E948F25DC01CB018C0D9D1DAE1DBF1D0B
:103CC000B7FF03C00197A109B04888839983AA83ED
:103CD000BB839F77DF91CF91FF90EF90DF90CF90E4
:103CE000BF90AF909F908F9008950E942C1E0895D2
:103CF00082E091E00E942C1E0895A0E0B0E0809345
:103D0000020190930301A0930401B093050108956B
:103D1000662777270C94D5211F93FC0199278827C4
:103D2000BC01E89411911032E9F3193010F01E3003
:103D3000C8F31B3251F01D3249F4689406C00E944A
:103D4000C91E610F711D811D911D119110531A30F3
:103D5000B0F33EF490958095709561957F4F8F4FAD
:103D60009F4F1F9108954532510520F4423010F0C5
:103D70000C94BE1EFB011082CB010895BB274A3074
:103D800031F4992322F4BDE2909581959F4F0C94D4
:103D9000011F592F482F372F262F660F771F881F97
:103DA000991F660F771F881F991F620F731F841F4B
:103DB000951F660F771F881F991F0895BB27FA016B
:103DC000A62F6217710581059105330B30FB66F054
:103DD000AA27660F771F881F991FAA1FA21710F026
:103DE000A21B63953850A9F7A05DAA3308F0A95D1E
:103DF000A19336F7B111B1931082CA010C942B2410
:103E0000BB27FB015527AA27880F991FAA1FA417B4
:103E100010F0A41B83955051B9F7A05DAA3308F0A8
:103E2000A95DA193009779F7B111B1931192CB01DC
:103E30000C942B244F925F926F927F929F92AF923D
:103E4000BF92CF92DF92EF92FF920F931F93CF9387
:103E5000DF93CDB7DEB729970FB6F894DEBF0FBE5C
:103E6000CDBF6A01122FB02E2BE3201720F0FF24C4
:103E7000F394F00E02C0BCE3FB2E0F2D27E0AE0141
:103E80004F5F5F4F0E943223AC018981982F997058
:103E9000913031F0E1FC06C0E0FE06C090E205C0C2
:103EA0009DE203C09BE201C090E0EE2DE07183FF34
:103EB0003CC0911102C083E001C084E0811718F476
:103EC000212F281B01C020E0E1110BC0F601822F39
:103ED00030E2882319F031938150FBCFC20ED11C00
:103EE00020E0992329F0D6019C93F60131966F01C9
:103EF000C6010396E2FE0AC03EE4D6013C9341E4CB
:103F000011964C93119712963C9306C03EE6F6012B
:103F1000308341E641833283FC01322F40E2332378
:103F200009F442C041933150FACF82FF44C091114D
:103F300002C083E001C084E0811718F4212F281B00
:103F400001C020E0E1110BC0F601822F30E288238E
:103F500019F031938150FBCFC20ED11C20E0992380
:103F600029F0D6019C93F60131966F01C6010396A4
:103F7000E2FE0BC039E4D6013C933EE411963C933B
:103F8000119736E412963C9307C039E6F601308368
:103F90003EE6318336E63283FC01322F40E23323A2
:103FA00019F041933150FBCFFC01E20FF11D10825B
:103FB0008EEF9FEFB7C0F1E0911101C0F0E06F2FDD
:103FC00070E01416150624F49A012F5F3F4F02C0CB
:103FD00021E030E0260F371FBB2029F06B2D70E069
:103FE0006F5F7F4F02C060E070E0260F371F612FC8
:103FF00070E0261737071CF4121B212F01C020E0A8
:104000003E2D387159F4D601322F60E2332319F076
:104010006D933150FBCFC20ED11C20E0FF2331F055
:10402000D6019C93B6016F5F7F4F6B01E1110BC00E
:10403000F601922F30E3992319F031939150FBCF81
:10404000C20ED11C20E09F2D940F3A81782F707101
:10405000A72E84FF03C0313309F49150191624F4BC
:10406000993018F098E001C091E0E42F852F57FFB8
:1040700002C0E0E080E06E2F782FE0E0F0E0AEE2FA
:104080009A2E3A01691A71082A01461A570A0B2D0D
:1040900010E01195019511096F3F8FEF780729F412
:1040A000D6019C92C60101966C014617570784F011
:1040B000661677066CF47F01E40CF51CA1E0B0E015
:1040C000AC0FBD1FEA0EFB1ED7011196BC9002C0BB
:1040D00090E3B92E615071093196C60101967C01B9
:1040E0006017710724F0D601BC926C01D5CF64171C
:1040F000750741F4363320F4353321F4A11002C0A2
:1041000081E3B82EF601B082F701822F90E2882376
:1041100019F091938150FBCFF701E20FF11D10824E
:1041200080E090E029960FB6F894DEBF0FBECDBFB9
:10413000DF91CF911F910F91FF90EF90DF90CF9083
:10414000BF90AF909F907F906F905F904F90089539
:10415000CF93DF938230910510F482E090E0E091FC
:104160001C06F0911D0620E030E0C0E0D0E0309762
:1041700011F14081518148175907C0F0481759077C
:1041800061F482819381209719F09B838A832BC0ED
:1041900090931D0680931C0626C02115310519F049
:1041A0004217530718F49A01BE01DF01EF010280A4
:1041B000F381E02DDCCF2115310509F1281B390BE6
:1041C0002430310590F412968D919C9113976115CE
:1041D000710521F0FB019383828304C090931D0637
:1041E00080931C06FD01329644C0FD01E20FF31FCF
:1041F00081939193225031092D933C933AC02091A1
:104200001A0630911B06232B41F4209108013091AE
:10421000090130931B0620931A0620910601309164
:1042200007012115310541F42DB73EB740910A0130
:1042300050910B01241B350BE0911A06F0911B06DF
:10424000E217F307A0F42E1B3F0B2817390778F06D
:10425000AC014E5F5F4F2417350748F04E0F5F1FCC
:1042600050931B0640931A068193919302C0E0E09D
:10427000F0E0CF01DF91CF9108950F931F93CF937B
:10428000DF93009709F48CC0FC01329713821282ED
:1042900000911C0610911D060115110581F4208165
:1042A0003181820F931F20911A0630911B06281727
:1042B000390779F5F0931B06E0931A0671C0D8010F
:1042C00040E050E0AE17BF0750F412962D913C919C
:1042D0001397AD012115310509F1D901F3CF9D01E6
:1042E000DA013383228360817181860F971F8217E1
:1042F000930769F4EC0128813981260F371F2E5F5F
:104300003F4F318320838A819B8193838283452B16
:1043100029F4F0931D06E0931C0642C01396FC930B
:10432000EE931297ED01499159919E01240F351F8B
:10433000E217F30771F480819181840F951F029633
:1043400011969C938E938281938113969C938E9366
:104350001297E0E0F0E0D80112968D919C911397AE
:10436000009719F0F8018C01F6CF8D919C9198017E
:104370002E5F3F4F820F931F20911A0630911B062C
:104380002817390769F4309729F410921D06109206
:104390001C0602C01382128210931B0600931A0699
:1043A000DF91CF911F910F910895A0E0B0E0EBED68
:1043B000F1E20C949825EC017B016115710519F06F
:1043C000DB018D939C938E010F5F1F4F7880872DAB
:1043D00090E00E940A24892B11F0E801F4CFBDE29D
:1043E0007B1205C00F5F1F4F7980C1E008C0EBE270
:1043F0007E1204C08E010E5F1F4F7980C0E06801FD
:10440000F1E0CF1AD10843E050E062EC70E0C60161
:104410000E941324892BF1F4680122E0C20ED11C02
:1044200045E050E06DEB70E0C6010E941324892B3B
:1044300021F4680187E0C80ED11CE114F10419F0E1
:10444000D701CD92DC92C111FFC060E070E080E83E
:104450009FE703C143E050E06AEB70E0C6010E94B1
:104460001324892B51F4E114F10409F4F2C00E5F16
:104470001F4FF70111830083ECC0680160E070E01A
:10448000CB0100E010E0F601D0EDD70DDA3058F5A1
:104490002C2F2260622E2C2F2870C2FF05C0211104
:1044A00028C00F5F1F4F25C0222311F001501109B2
:1044B000A5E0B0E09B01AC010E9481254B015C01AD
:1044C000880C991CAA1CBB1CC501B4016D0F711D81
:1044D000811D911D6839A9E97A078A07A9E19A0720
:1044E00040F0C66005C0DE3F51F4C3FD44C0C86063
:1044F0006C2EBFEFCB1ADB0A7080C62DC4CF2D2FD8
:104500002F7D2531C1F540814D3211F4C06106C0C7
:104510004B3221F0319621E030E006C03296D601D0
:1045200011964C9122E030E0A0EDA40FAA3018F0D3
:10453000E21BF30B20C040E050E04038BCE05B07DA
:104540005CF49A01220F331F220F331F420F531FB7
:10455000440F551F4A0F511D3196DF0111972C91C1
:10456000A0EDA20FAA3048F3C4FF03C051954195B6
:104570005109040F151FC1FF07C0E114F10421F018
:104580003197D701ED93FC930E944024C370C33050
:1045900019F06B017C0106C06B017C01F7FAF09405
:1045A000F7F8F09420E030E0A901C701B6010E94BD
:1045B0003B24882309F445C017FF06C011950195D7
:1045C0001109C9EDD0E002C0C1EFD0E05E01B8E151
:1045D000AB1AB1084601BE2DAF2D90E2E92EF12CA9
:1045E0000E151F0584F0FE012591359145915491DA
:1045F000B4018B2F9A2F0E94A1244B01B82FA92F11
:104600000E191F09EDCF2497F594E794CA15DB0521
:1046100039F76401EB2EFA2E8E2D880F8F2D881F0F
:104620008F3F49F020E030E0A901C701B6010E94A8
:104630003B24811106C082E290E090931F06809394
:104640001E06C701B60109C060E070E080E89FEF78
:1046500004C060E070E080EC9FE7CDB7DEB7EEE02D
:104660000C94B425283008F027E03327DA01990F9D
:10467000311D87FD916000966105710539F4326046
:104680002E5F3D9330E32A95E1F708959F3F30F088
:1046900080387105610509F03C5F3C5F3D939130C6
:1046A00008F08068911DDF93CF931F930F93FF92C3
:1046B000EF92192F987F9695E92F96959695E90F89
:1046C000FF27E15BFE4F99273327EE24FF24A70144
:1046D000E70105900894079428F4360FE71EF81EAA
:1046E000491F511D660F771F881F991F0694A1F758
:1046F0000590079428F4E70EF81E491F561FC11DA8
:10470000770F881F991F661F0694A1F705900794DD
:1047100028F4F80E491F561FC71FD11D880F991F77
:10472000661F771F0694A1F70590079420F4490FA0
:10473000561FC71FD81F990F661F771F881F069423
:10474000A9F784911095177041F0D695C7955795A4
:104750004795F794E7941A95C1F7E5EFF0E0689470
:104760001590159135916591959105907FE273951E
:10477000E118F10A430B560BC90BD009C0F7E10C45
:10478000F11E431F561FC91FD01D7EF4703311F454
:104790008A95E6CFE894015030F0080F0AF400271C
:1047A000021708F4202F2395022F7A3328F079E39B
:1047B0007D932A95E9F710C07D932A9589F6069492
:1047C00097956795379517951794E118F10A430B5C
:1047D000560BC90BD00998F023957E9173957A33C7
:1047E00008F070E37C932013B8F77E9170617D939D
:1047F00030F0839571E37D9370E32A95E1F71124FE
:10480000EF90FF900F911F91CF91DF91992787FD36
:104810009095089591110C940E25803219F08950CD
:104820008550C8F70895FB01DC014150504088F0E5
:104830008D9181341CF08B350CF4805E6591613470
:104840001CF06B350CF4605E861B611171F3990BE3
:104850000895881BFCCFDC01FC01672F7191772341
:10486000E1F7329704C07C916D9370836291AE172B
:10487000BF07C8F308950E947D2408F481E00895DD
:10488000E89409C097FB3EF49095809570956195EA
:104890007F4F8F4F9F4F9923A9F0F92F96E9BB27A0
:1048A0009395F695879577956795B795F111F8CF1C
:1048B000FAF4BB0F11F460FF1BC06F5F7F4F8F4F87
:1048C0009F4F16C0882311F096E911C0772321F07D
:1048D0009EE8872F762F05C0662371F096E8862F15
:1048E00070E060E02AF09A95660F771F881FDAF76C
:1048F000880F9695879597F90895990F0008550F99
:10490000AA0BE0E8FEEF16161706E807F907C0F055
:1049100012161306E407F50798F0621B730B840B5D
:10492000950B39F40A2661F0232B242B252B21F437
:1049300008950A2609F4A140A6958FEF811D811DD7
:1049400008950E94B4240C9428250E941A2538F05A
:104950000E94212520F0952311F00C9411250C9430
:10496000172511240C945C250E94392570F3959F1E
:10497000C1F3950F50E0551F629FF001729FBB2756
:10498000F00DB11D639FAA27F00DB11DAA1F649FF2
:104990006627B00DA11D661F829F2227B00DA11DA5
:1049A000621F739FB00DA11D621F839FA00D611D2B
:1049B000221F749F3327A00D611D231F849F600D4C
:1049C000211D822F762F6A2F11249F5750409AF075
:1049D000F1F088234AF0EE0FFF1FBB1F661F771F01
:1049E000881F91505040A9F79E3F510580F00C94CC
:1049F00011250C945C255F3FE4F3983ED4F3869533
:104A000077956795B795F795E7959F5FC1F7FE2B6B
:104A1000880F911D9695879597F90895992788276E
:104A2000089597F99F6780E870E060E008959FEF30
:104A300080EC089500240A94161617061806090635
:104A4000089500240A941216130614060506089504
:104A5000092E0394000C11F4882352F0BB0F40F48C
:104A6000BF2B11F460FF04C06F5F7F4F8F4F9F4FCC
:104A7000089557FD9058440F551F59F05F3F71F04E
:104A80004795880F97FB991F61F09F3F79F08795B5
:104A90000895121613061406551FF2CF4695F1DF3E
:104AA00008C0161617061806991FF1CF86957105CE
:104AB000610508940895E894BB2766277727CB0102
:104AC00097F90895052E97FB1EF400940E9479250E
:104AD00057FD07D00E94CB2507FC03D04EF40C9461
:104AE000792550954095309521953F4F4F4F5F4F19
:104AF000089590958095709561957F4F8F4F9F4F4A
:104B000008950E94ED25A59F900DB49F900DA49F40
:104B1000800D911D11240895B7FF0C9481250E94EA
:104B20008125821B930B08952F923F924F925F92A3
:104B30006F927F928F929F92AF92BF92CF92DF92AD
:104B4000EF92FF920F931F93CF93DF93CDB7DEB712
:104B5000CA1BDB0B0FB6F894DEBF0FBECDBF0994A6
:104B60002A88398848885F846E847D848C849B84FD
:104B7000AA84B984C884DF80EE80FD800C811B810B
:104B8000AA81B981CE0FD11D0FB6F894DEBF0FBE3A
:104B9000CDBFED010895A1E21A2EAA1BBB1BFD019A
:104BA0000DC0AA1FBB1FEE1FFF1FA217B307E4070C
:104BB000F50720F0A21BB30BE40BF50B661F771F64
:104BC000881F991F1A9469F7609570958095909544
:104BD0009B01AC01BD01CF010895A29FB001B39F1D
:104BE000C001A39F700D811D1124911DB29F700DF6
:104BF000811D1124911D08955058BB27AA270E949A
:104C000014260C9428250E941A2538F00E9421258C
:104C100020F039F49F3F19F426F40C9417250EF474
:104C2000E095E7FB0C941125E92F0E94392558F3F4
:104C3000BA17620773078407950720F079F4A6F581
:104C40000C945B250EF4E0950B2EBA2FA02D0B01D2
:104C5000B90190010C01CA01A0011124FF27591BC1
:104C600099F0593F50F4503E68F11A16F040A22FC7
:104C7000232F342F4427585FF3CF46953795279538
:104C8000A795F0405395C9F77EF41F16BA0B620B37
:104C9000730B840BBAF09150A1F0FF0FBB1F661F7E
:104CA000771F881FC2F70EC0BA0F621F731F841FC1
:104CB00048F4879577956795B795F7959E3F08F0E7
:104CC000B0CF9395880F08F09927EE0F97958795A9
:104CD00008950E947D260C9428250E94212558F0D5
:104CE0000E941A2540F029F45F3F29F00C94112509
:104CF00051110C945C250C9417250E94392568F3FA
:104D00009923B1F3552391F3951B550BBB27AA2784
:104D100062177307840738F09F5F5F4F220F331FBE
:104D2000441FAA1FA9F335D00E2E3AF0E0E832D086
:104D300091505040E695001CCAF72BD0FE2F29D089
:104D4000660F771F881FBB1F261737074807AB075B
:104D5000B0E809F0BB0B802DBF01FF2793585F4FD0
:104D60003AF09E3F510578F00C9411250C945C2587
:104D70005F3FE4F3983ED4F3869577956795B795B2
:104D8000F7959F5FC9F7880F911D9695879597F9BD
:104D90000895E1E0660F771F881FBB1F6217730736
:104DA0008407BA0720F0621B730B840BBA0BEE1F4B
:104DB00088F7E09508950E94E2266894B1110C945A
:104DC0005C2508950E94412588F09F5798F0B92FDF
:104DD0009927B751B0F0E1F0660F771F881F991F30
:104DE0001AF0BA95C9F714C0B13091F00E945B2552
:104DF000B1E008950C945B25672F782F8827B85F62
:104E000039F0B93FCCF3869577956795B395D9F787
:104E10003EF490958095709561957F4F8F4F9F4F91
:104E200008950E947D2408F48FEF08950E947D2448
:104E3000880B990B0895DB018F939F930E94812526
:104E4000BF91AF91A29F800D911DA39F900DB29F26
:104E5000900D1124089597FB072E16F4009407D0A7
:104E600077FD09D00E94452707FC05D03EF49095B8
:104E700081959F4F0895709561957F4F0895EE0F2E
:104E8000FF1F0590F491E02D0994AA1BBB1B51E173
:104E900007C0AA1FBB1FA617B70710F0A61BB70BAA
:104EA000881F991F5A95A9F780959095BC01CD014F
:104EB0000895A0E0B0E0EFE5F7E20C949825EC014E
:104EC000009721F4CB010E94A820B8C0FC01E60F96
:104ED000F71F9C0122503109E217F30708F4ACC018
:104EE000D9010D911C91119706171707B0F00530E5
:104EF000110508F49FC0C80104978617970708F4A6
:104F000099C002501109061B170B019311936D9361
:104F10007C93CF010E943D218DC05B01A01AB10A94
:104F20004C01800E911EA0911C06B0911D0640E020
:104F300050E0E12CF12C109709F44AC0A815B905EE
:104F4000D1F56D907C901197630182E0C80ED11C61
:104F5000CA14DB0480F1A3014A195B096A0182E0EB
:104F6000C80ED11C1296BC9012971396AC91B5E066
:104F7000CB16D10440F0B282A38351834083D90180
:104F80006D937C930AC00E5F1F4FC301800F911F6A
:104F9000F90191838083EB2DFA2FE114F10431F0B4
:104FA000D7011396FC93EE93129744C0F0931D061D
:104FB000E0931C063FC08D919C91119748175907AB
:104FC00008F4AC017D0112960D90BC91A02DB3CFD9
:104FD00080911A0690911B0688159905E1F44617F1
:104FE0005707C8F48091060190910701009741F49A
:104FF0008DB79EB740910A0150910B01841B950B10
:10500000E817F907C8F4F0931B06E0931A06F901B4
:10501000718360830FC0CB010E94A8207C010097A0
:1050200059F0A801BE010E942828CE010E943D210E
:10503000C70104C0CE0102C080E090E0CDB7DEB76A
:10504000EEE00C94B42581E090E0F8940C945028A4
:10505000FB01DC0102C001900D9241505040D8F795
:105060000895FB01DC018D91019080190110D9F3A5
:10507000990B0895FB01DC0101900D920020E1F7EE
:105080000895FB01DC014150504048F001900D9221
:105090000020C9F701C01D9241505040E0F708952B
:1050A00011E0CFE2D1E004C0FE010E943F2721962B
:0A50B000C033D107C9F7F894FFCF11
:1050BA00010101000000000020068000000000003D
:1050CA001102CB0236022602B70200000000900A43
:1050DA004715280AD70A590A370A4B0A000000005E
:1050EA00030B030B030B0000000000000000D203B7
:1050FA000D0419032E02C1020000000073014715B6
:10510A0001027201C701DF015A01446972656374C1
:10511A00696F6E203A2000616D6F756E743A2000D7
:10512A004C6F6E676974756465203A20004C61742F
:10513A006974756465203A200054696D65203A20C7
:10514A00000D0A0044617465203A20000A50616328
:10515A006B6167653A005061636B6167652049441A
:10516A00203A20004F726967696E41646472657300
:10517A0073203A200046726F6D203A20004465730E
:10518A0074696E6174696F6E4164647265737320C9
:10519A003A2000486F7054746C203A20004E756DA6
:1051AA004F66486F7073203A200044617461203A58
:1051BA00200053656E645061636B616765007072AD
:1051CA006F7061676174696F6E2073657420746FA4
:1051DA00200070726F7061676174655061636B6102
:1051EA0067650050726F63657373696E6720446107
:1051FA00746100466F72776172645061636B6167B4
:10520A006500526561644461746100726164696F2A
:10521A00206E6F20617661696C626C65006E616EEA
:10522A0000696E66006F76660051554555453A200D
:10523A0063616E2774207065656B206974656D20E3
:10524A0066726F6D2071756575653A207175657541
:10525A006520697320656D7074792E005155455526
:10526A00453A2063616E277420706F7020697465F7
:10527A006D2066726F6D2071756575653A2071755E
:10528A0065756520697320656D7074792E004D6FA0
:10529A0076652072657175657374656400416D6F1A
:1052AA00756E7400446972656374696F6E00506943
:1052BA0063747572652072657175657374656400CF
:1052CA0047505344617461207265717565737465E2
:1052DA006400475053204441544121004750524DE5
:1052EA004300474E524D4300475047474100474EFF
:0452FA0047474100E1
:00000001FF
